{
  "fileName": "MineBlockCraft.sol",
  "contractName": "MBCCore",
  "source": "pragma solidity >=0.5.0 <0.7.0;\npragma experimental ABIEncoderV2;\n\nimport \"@openzeppelin/upgrades/contracts/Initializable.sol\";\n\n\ncontract Owner {\n    address internal _owner;\n\n    event OwnerSet(address indexed oldOwner, address indexed newOwner);\n\n    modifier onlyOwner() {\n        require(msg.sender == _owner, \"Caller is not owner\");\n        _;\n    }\n\n    function changeOwner(address newOwner) public onlyOwner {\n        emit OwnerSet(_owner, newOwner);\n        _owner = newOwner;\n    }\n\n    function owner() public view returns (address) {\n        return _owner;\n    }\n    function isOwner() public view returns (bool) {\n        return msg.sender == _owner;\n    }\n\n}\n\n\ncontract MBCUser is Owner {\n    struct Profile {\n        string Nickname;\n        string Signature;\n    }\n\n    Profile[] public Profiles;\n\n    mapping(uint256 => address) public IdToAddress;\n    mapping(address => uint256) public AddressToId;\n    mapping(address => address[]) internal Friend;\n\n    uint256 public userCount;\n\n    event eventNewUser(address indexed userAddress, uint256 indexed UserId);\n\n    modifier isUser() {\n        require(\n            AddressToId[msg.sender] > 0 || isOwner(),\n            \"not registered\"\n        );\n        _;\n    }\n\n    function _newUser(string memory _Nickname, string memory _Signature)\n        internal\n        returns (uint256 _userId)\n    {\n        Profiles.push(Profile(_Nickname, _Signature));\n        uint256 UserId = Profiles.length - 1;\n\n        IdToAddress[UserId] = msg.sender;\n        AddressToId[msg.sender] = UserId;\n        userCount++;\n\n        emit eventNewUser(msg.sender, UserId);\n\n        return UserId;\n    }\n\n    function newUser(string memory _Nickname, string memory _Signature)\n        public\n        returns (uint256 _userId)\n    {\n        require(\n            AddressToId[msg.sender] == 0 && !isOwner(),\n            \"already registered\"\n        );\n        return _newUser(_Nickname, _Signature);\n    }\n\n    function editProfile(string memory _Nickname, string memory _Signature)\n        public\n    {\n        require(AddressToId[msg.sender] > 0, \"not registered\");\n        uint256 UserId = AddressToId[msg.sender];\n        Profiles[UserId] = Profile(_Nickname, _Signature);\n    }\n\n    function newProfile(string memory _Nickname, string memory _Signature)\n        public\n        returns (uint256 _userId)\n    {\n        require(!isOwner(), \"you are owner\");\n        if (AddressToId[msg.sender] == 0) {\n            return _newUser(_Nickname, _Signature);\n        } else {\n            editProfile(_Nickname, _Signature);\n            return AddressToId[msg.sender];\n        }\n    }\n\n    function getProfile(address _address) public view returns (Profile memory) {\n        if (_address == owner()) {\n            return Profiles[0];\n        } else if (AddressToId[_address] > 0) {\n            return Profiles[AddressToId[_address]];\n        } else {\n            return Profile(\"\", \"\");\n        }\n    }\n}\n\n\nlibrary Search {\n    function indexOf(address[] storage self, address value)\n        public\n        view\n        returns (uint256)\n    {\n        for (uint256 i = 0; i < self.length; i++) {\n            if (self[i] == value) return i;\n        }\n        return uint256(-1);\n    }\n}\n\n\ncontract MBCMessage is MBCUser {\n    struct Message {\n        uint256 time;\n        string content;\n        address fromUser;\n        address toUser;\n    }\n\n    Message[] internal Messages;\n    using Search for address[];\n\n    mapping(address => mapping(address => uint256)) internal messageCount;\n    mapping(address => address[]) internal messageList;\n\n    event newMessage(\n        address indexed fromUser,\n        address indexed toUser,\n        uint256 MessageId\n    );\n\n    function sendMsg(address _toUser, string memory _content) public {\n        require(_toUser != msg.sender, \"Can not send to yourself\");\n        //推入消息列表\n        Messages.push(Message(block.timestamp, _content, msg.sender, _toUser));\n        uint256 MessageId = Messages.length - 1;\n        emit newMessage(msg.sender, _toUser, MessageId);\n        if (messageList[msg.sender].indexOf(_toUser) == uint256(-1)) {\n            messageList[msg.sender].push(_toUser);\n        }\n        if (messageList[_toUser].indexOf(msg.sender) == uint256(-1)) {\n            messageList[_toUser].push(msg.sender);\n        }\n\n        messageCount[msg.sender][_toUser]++;\n        messageCount[_toUser][msg.sender]++;\n        delete MessageId;\n        delete _content;\n    }\n\n    function getMessages(address _toUser)\n        public\n        view\n        returns (Message[] memory)\n    {\n        Message[] memory result = new Message[](\n            messageCount[msg.sender][_toUser]\n        );\n\n        uint256 counter = 0;\n        for (uint256 i = 0; i < Messages.length; i++) {\n            if (\n                (Messages[i].fromUser == msg.sender &&\n                    Messages[i].toUser == _toUser) ||\n                (Messages[i].fromUser == _toUser &&\n                    Messages[i].toUser == msg.sender)\n            ) {\n                result[counter] = Messages[i];\n                counter++;\n            }\n        }\n        return result;\n    }\n\n    function msgList() public view returns (address[] memory) {\n        return messageList[msg.sender];\n    }\n}\n\n\ncontract MBCFriend is MBCUser, MBCMessage {\n    event eventAddFriend(address indexed fromUser, address indexed toUser);\n\n    function addFriend(address _toUser) public {\n        require(!isFriends(_toUser), \"already is your friend\");\n        Friend[msg.sender].push(_toUser);\n        messageList[msg.sender].push(_toUser);\n        emit eventAddFriend(msg.sender, _toUser);\n    }\n\n    function getFriends() public view returns (address[] memory) {\n        return Friend[msg.sender];\n    }\n\n    function isFriends(address _toUser) public view returns (bool) {\n        bool exists = false;\n        for (uint256 i = 0; i < Friend[msg.sender].length; i++) {\n            if (Friend[msg.sender][i] == _toUser) {\n                exists = true;\n            }\n        }\n        return exists;\n    }\n}\n\ncontract MBCCore is MBCFriend,Initializable {\n    function initialize() public initializer {\n        _owner = msg.sender;\n        emit OwnerSet(address(0), _owner);\n        _newUser(\"Fankouzu\", \"I'm admin\");\n    }\n}\n",
  "sourcePath": "contracts/MineBlockCraft.sol",
  "abi": [
    {
      "anonymous": false,
      "inputs": [
        {
          "indexed": true,
          "internalType": "address",
          "name": "oldOwner",
          "type": "address"
        },
        {
          "indexed": true,
          "internalType": "address",
          "name": "newOwner",
          "type": "address"
        }
      ],
      "name": "OwnerSet",
      "type": "event"
    },
    {
      "anonymous": false,
      "inputs": [
        {
          "indexed": true,
          "internalType": "address",
          "name": "fromUser",
          "type": "address"
        },
        {
          "indexed": true,
          "internalType": "address",
          "name": "toUser",
          "type": "address"
        }
      ],
      "name": "eventAddFriend",
      "type": "event"
    },
    {
      "anonymous": false,
      "inputs": [
        {
          "indexed": true,
          "internalType": "address",
          "name": "userAddress",
          "type": "address"
        },
        {
          "indexed": true,
          "internalType": "uint256",
          "name": "UserId",
          "type": "uint256"
        }
      ],
      "name": "eventNewUser",
      "type": "event"
    },
    {
      "anonymous": false,
      "inputs": [
        {
          "indexed": true,
          "internalType": "address",
          "name": "fromUser",
          "type": "address"
        },
        {
          "indexed": true,
          "internalType": "address",
          "name": "toUser",
          "type": "address"
        },
        {
          "indexed": false,
          "internalType": "uint256",
          "name": "MessageId",
          "type": "uint256"
        }
      ],
      "name": "newMessage",
      "type": "event"
    },
    {
      "constant": true,
      "inputs": [
        {
          "internalType": "address",
          "name": "",
          "type": "address"
        }
      ],
      "name": "AddressToId",
      "outputs": [
        {
          "internalType": "uint256",
          "name": "",
          "type": "uint256"
        }
      ],
      "payable": false,
      "stateMutability": "view",
      "type": "function"
    },
    {
      "constant": true,
      "inputs": [
        {
          "internalType": "uint256",
          "name": "",
          "type": "uint256"
        }
      ],
      "name": "IdToAddress",
      "outputs": [
        {
          "internalType": "address",
          "name": "",
          "type": "address"
        }
      ],
      "payable": false,
      "stateMutability": "view",
      "type": "function"
    },
    {
      "constant": true,
      "inputs": [
        {
          "internalType": "uint256",
          "name": "",
          "type": "uint256"
        }
      ],
      "name": "Profiles",
      "outputs": [
        {
          "internalType": "string",
          "name": "Nickname",
          "type": "string"
        },
        {
          "internalType": "string",
          "name": "Signature",
          "type": "string"
        }
      ],
      "payable": false,
      "stateMutability": "view",
      "type": "function"
    },
    {
      "constant": false,
      "inputs": [
        {
          "internalType": "address",
          "name": "_toUser",
          "type": "address"
        }
      ],
      "name": "addFriend",
      "outputs": [],
      "payable": false,
      "stateMutability": "nonpayable",
      "type": "function"
    },
    {
      "constant": false,
      "inputs": [
        {
          "internalType": "address",
          "name": "newOwner",
          "type": "address"
        }
      ],
      "name": "changeOwner",
      "outputs": [],
      "payable": false,
      "stateMutability": "nonpayable",
      "type": "function"
    },
    {
      "constant": false,
      "inputs": [
        {
          "internalType": "string",
          "name": "_Nickname",
          "type": "string"
        },
        {
          "internalType": "string",
          "name": "_Signature",
          "type": "string"
        }
      ],
      "name": "editProfile",
      "outputs": [],
      "payable": false,
      "stateMutability": "nonpayable",
      "type": "function"
    },
    {
      "constant": true,
      "inputs": [],
      "name": "getFriends",
      "outputs": [
        {
          "internalType": "address[]",
          "name": "",
          "type": "address[]"
        }
      ],
      "payable": false,
      "stateMutability": "view",
      "type": "function"
    },
    {
      "constant": true,
      "inputs": [
        {
          "internalType": "address",
          "name": "_toUser",
          "type": "address"
        }
      ],
      "name": "getMessages",
      "outputs": [
        {
          "components": [
            {
              "internalType": "uint256",
              "name": "time",
              "type": "uint256"
            },
            {
              "internalType": "string",
              "name": "content",
              "type": "string"
            },
            {
              "internalType": "address",
              "name": "fromUser",
              "type": "address"
            },
            {
              "internalType": "address",
              "name": "toUser",
              "type": "address"
            }
          ],
          "internalType": "struct MBCMessage.Message[]",
          "name": "",
          "type": "tuple[]"
        }
      ],
      "payable": false,
      "stateMutability": "view",
      "type": "function"
    },
    {
      "constant": true,
      "inputs": [
        {
          "internalType": "address",
          "name": "_address",
          "type": "address"
        }
      ],
      "name": "getProfile",
      "outputs": [
        {
          "components": [
            {
              "internalType": "string",
              "name": "Nickname",
              "type": "string"
            },
            {
              "internalType": "string",
              "name": "Signature",
              "type": "string"
            }
          ],
          "internalType": "struct MBCUser.Profile",
          "name": "",
          "type": "tuple"
        }
      ],
      "payable": false,
      "stateMutability": "view",
      "type": "function"
    },
    {
      "constant": false,
      "inputs": [],
      "name": "initialize",
      "outputs": [],
      "payable": false,
      "stateMutability": "nonpayable",
      "type": "function"
    },
    {
      "constant": true,
      "inputs": [
        {
          "internalType": "address",
          "name": "_toUser",
          "type": "address"
        }
      ],
      "name": "isFriends",
      "outputs": [
        {
          "internalType": "bool",
          "name": "",
          "type": "bool"
        }
      ],
      "payable": false,
      "stateMutability": "view",
      "type": "function"
    },
    {
      "constant": true,
      "inputs": [],
      "name": "isOwner",
      "outputs": [
        {
          "internalType": "bool",
          "name": "",
          "type": "bool"
        }
      ],
      "payable": false,
      "stateMutability": "view",
      "type": "function"
    },
    {
      "constant": true,
      "inputs": [],
      "name": "msgList",
      "outputs": [
        {
          "internalType": "address[]",
          "name": "",
          "type": "address[]"
        }
      ],
      "payable": false,
      "stateMutability": "view",
      "type": "function"
    },
    {
      "constant": false,
      "inputs": [
        {
          "internalType": "string",
          "name": "_Nickname",
          "type": "string"
        },
        {
          "internalType": "string",
          "name": "_Signature",
          "type": "string"
        }
      ],
      "name": "newProfile",
      "outputs": [
        {
          "internalType": "uint256",
          "name": "_userId",
          "type": "uint256"
        }
      ],
      "payable": false,
      "stateMutability": "nonpayable",
      "type": "function"
    },
    {
      "constant": false,
      "inputs": [
        {
          "internalType": "string",
          "name": "_Nickname",
          "type": "string"
        },
        {
          "internalType": "string",
          "name": "_Signature",
          "type": "string"
        }
      ],
      "name": "newUser",
      "outputs": [
        {
          "internalType": "uint256",
          "name": "_userId",
          "type": "uint256"
        }
      ],
      "payable": false,
      "stateMutability": "nonpayable",
      "type": "function"
    },
    {
      "constant": true,
      "inputs": [],
      "name": "owner",
      "outputs": [
        {
          "internalType": "address",
          "name": "",
          "type": "address"
        }
      ],
      "payable": false,
      "stateMutability": "view",
      "type": "function"
    },
    {
      "constant": false,
      "inputs": [
        {
          "internalType": "address",
          "name": "_toUser",
          "type": "address"
        },
        {
          "internalType": "string",
          "name": "_content",
          "type": "string"
        }
      ],
      "name": "sendMsg",
      "outputs": [],
      "payable": false,
      "stateMutability": "nonpayable",
      "type": "function"
    },
    {
      "constant": true,
      "inputs": [],
      "name": "userCount",
      "outputs": [
        {
          "internalType": "uint256",
          "name": "",
          "type": "uint256"
        }
      ],
      "payable": false,
      "stateMutability": "view",
      "type": "function"
    }
  ],
  "bytecode": "0x608060405234801561001057600080fd5b50612c9f806100206000396000f3fe608060405234801561001057600080fd5b50600436106101165760003560e01c80638129fc1c116100a25780638f32d59b116100715780638f32d59b14610308578063a6f9dae114610326578063b2f7132214610342578063d7a1cfe114610372578063fdd853c51461038e57610116565b80638129fc1c14610294578063835553351461029e5780638b5927e9146102ba5780638da5cb5b146102ea57610116565b80634cea965e116100e95780634cea965e146101b757806357077ad7146101e85780635c2bc8e5146102185780636776a163146102485780637b02b2c91461027857610116565b806307973ccf1461011b5780630f53a470146101395780631f34563c146101695780631f8f727014610199575b600080fd5b6101236103ac565b6040516101309190612a4a565b60405180910390f35b610153600480360361014e919081019061229c565b6103b2565b6040516101609190612a28565b60405180910390f35b610183600480360361017e9190810190612319565b61079a565b6040516101909190612a4a565b60405180910390f35b6101a1610840565b6040516101ae9190612860565b60405180910390f35b6101d160048036036101cc9190810190612385565b61090b565b6040516101df929190612911565b60405180910390f35b61020260048036036101fd919081019061229c565b610a6c565b60405161020f91906128f6565b60405180910390f35b610232600480360361022d919081019061229c565b610b87565b60405161023f9190612a4a565b60405180910390f35b610262600480360361025d9190810190612385565b610b9f565b60405161026f9190612845565b60405180910390f35b610292600480360361028d91908101906122c5565b610bd2565b005b61029c611232565b005b6102b860048036036102b39190810190612319565b611450565b005b6102d460048036036102cf9190810190612319565b611588565b6040516102e19190612a4a565b60405180910390f35b6102f261167e565b6040516102ff9190612845565b60405180910390f35b6103106116a7565b60405161031d91906128f6565b60405180910390f35b610340600480360361033b919081019061229c565b6116fe565b005b61035c6004803603610357919081019061229c565b61184b565b60405161036991906128d4565b60405180910390f35b61038c6004803603610387919081019061229c565b611ca5565b005b610396611e91565b6040516103a39190612860565b60405180910390f35b60055481565b6103ba6120f6565b6103c261167e565b73ffffffffffffffffffffffffffffffffffffffff168273ffffffffffffffffffffffffffffffffffffffff16141561056757600160008154811061040357fe5b9060005260206000209060020201604051806040016040529081600082018054600181600116156101000203166002900480601f0160208091040260200160405190810160405280929190818152602001828054600181600116156101000203166002900480156104b55780601f1061048a576101008083540402835291602001916104b5565b820191906000526020600020905b81548152906001019060200180831161049857829003601f168201915b50505050508152602001600182018054600181600116156101000203166002900480601f0160208091040260200160405190810160405280929190818152602001828054600181600116156101000203166002900480156105575780601f1061052c57610100808354040283529160200191610557565b820191906000526020600020905b81548152906001019060200180831161053a57829003601f168201915b5050505050815250509050610795565b6000600360008473ffffffffffffffffffffffffffffffffffffffff1673ffffffffffffffffffffffffffffffffffffffff16815260200190815260200160002054111561075f576001600360008473ffffffffffffffffffffffffffffffffffffffff1673ffffffffffffffffffffffffffffffffffffffff16815260200190815260200160002054815481106105fb57fe5b9060005260206000209060020201604051806040016040529081600082018054600181600116156101000203166002900480601f0160208091040260200160405190810160405280929190818152602001828054600181600116156101000203166002900480156106ad5780601f10610682576101008083540402835291602001916106ad565b820191906000526020600020905b81548152906001019060200180831161069057829003601f168201915b50505050508152602001600182018054600181600116156101000203166002900480601f01602080910402602001604051908101604052809291908181526020018280546001816001161561010002031660029004801561074f5780601f106107245761010080835404028352916020019161074f565b820191906000526020600020905b81548152906001019060200180831161073257829003601f168201915b5050505050815250509050610795565b60405180604001604052806040518060200160405280600081525081526020016040518060200160405280600081525081525090505b919050565b600080600360003373ffffffffffffffffffffffffffffffffffffffff1673ffffffffffffffffffffffffffffffffffffffff168152602001908152602001600020541480156107ef57506107ed6116a7565b155b61082e576040517f08c379a000000000000000000000000000000000000000000000000000000000815260040161082590612948565b60405180910390fd5b6108388383611f5c565b905092915050565b6060600460003373ffffffffffffffffffffffffffffffffffffffff1673ffffffffffffffffffffffffffffffffffffffff16815260200190815260200160002080548060200260200160405190810160405280929190818152602001828054801561090157602002820191906000526020600020905b8160009054906101000a900473ffffffffffffffffffffffffffffffffffffffff1673ffffffffffffffffffffffffffffffffffffffff16815260200190600101908083116108b7575b5050505050905090565b6001818154811061091857fe5b9060005260206000209060020201600091509050806000018054600181600116156101000203166002900480601f0160208091040260200160405190810160405280929190818152602001828054600181600116156101000203166002900480156109c45780601f10610999576101008083540402835291602001916109c4565b820191906000526020600020905b8154815290600101906020018083116109a757829003601f168201915b505050505090806001018054600181600116156101000203166002900480601f016020809104026020016040519081016040528092919081815260200182805460018160011615610100020316600290048015610a625780601f10610a3757610100808354040283529160200191610a62565b820191906000526020600020905b815481529060010190602001808311610a4557829003601f168201915b5050505050905082565b6000806000905060008090505b600460003373ffffffffffffffffffffffffffffffffffffffff1673ffffffffffffffffffffffffffffffffffffffff16815260200190815260200160002080549050811015610b7d578373ffffffffffffffffffffffffffffffffffffffff16600460003373ffffffffffffffffffffffffffffffffffffffff1673ffffffffffffffffffffffffffffffffffffffff1681526020019081526020016000208281548110610b2457fe5b9060005260206000200160009054906101000a900473ffffffffffffffffffffffffffffffffffffffff1673ffffffffffffffffffffffffffffffffffffffff161415610b7057600191505b8080600101915050610a79565b5080915050919050565b60036020528060005260406000206000915090505481565b60026020528060005260406000206000915054906101000a900473ffffffffffffffffffffffffffffffffffffffff1681565b3373ffffffffffffffffffffffffffffffffffffffff168273ffffffffffffffffffffffffffffffffffffffff161415610c41576040517f08c379a0000000000000000000000000000000000000000000000000000000008152600401610c38906129c8565b60405180910390fd5b600660405180608001604052804281526020018381526020013373ffffffffffffffffffffffffffffffffffffffff1681526020018473ffffffffffffffffffffffffffffffffffffffff1681525090806001815401808255809150509060018203906000526020600020906004020160009091929091909150600082015181600001556020820151816001019080519060200190610ce1929190612110565b5060408201518160020160006101000a81548173ffffffffffffffffffffffffffffffffffffffff021916908373ffffffffffffffffffffffffffffffffffffffff16021790555060608201518160030160006101000a81548173ffffffffffffffffffffffffffffffffffffffff021916908373ffffffffffffffffffffffffffffffffffffffff160217905550505050600060016006805490500390508273ffffffffffffffffffffffffffffffffffffffff163373ffffffffffffffffffffffffffffffffffffffff167f77fce3d644d187c48dee687c98653e76ea55d8aecf5ed4ac8f202d4d045c38c683604051610ddd9190612a4a565b60405180910390a37fffffffffffffffffffffffffffffffffffffffffffffffffffffffffffffffff600860003373ffffffffffffffffffffffffffffffffffffffff1673ffffffffffffffffffffffffffffffffffffffff16815260200190815260200160002073__Search________________________________634bb978bc9091866040518363ffffffff1660e01b8152600401610e7f929190612882565b60206040518083038186803b158015610e9757600080fd5b505af4158015610eab573d6000803e3d6000fd5b505050506040513d601f19601f82011682018060405250610ecf91908101906123ae565b1415610f7957600860003373ffffffffffffffffffffffffffffffffffffffff1673ffffffffffffffffffffffffffffffffffffffff1681526020019081526020016000208390806001815401808255809150509060018203906000526020600020016000909192909190916101000a81548173ffffffffffffffffffffffffffffffffffffffff021916908373ffffffffffffffffffffffffffffffffffffffff160217905550505b7fffffffffffffffffffffffffffffffffffffffffffffffffffffffffffffffff600860008573ffffffffffffffffffffffffffffffffffffffff1673ffffffffffffffffffffffffffffffffffffffff16815260200190815260200160002073__Search________________________________634bb978bc9091336040518363ffffffff1660e01b81526004016110139291906128ab565b60206040518083038186803b15801561102b57600080fd5b505af415801561103f573d6000803e3d6000fd5b505050506040513d601f19601f8201168201806040525061106391908101906123ae565b141561110d57600860008473ffffffffffffffffffffffffffffffffffffffff1673ffffffffffffffffffffffffffffffffffffffff1681526020019081526020016000203390806001815401808255809150509060018203906000526020600020016000909192909190916101000a81548173ffffffffffffffffffffffffffffffffffffffff021916908373ffffffffffffffffffffffffffffffffffffffff160217905550505b600760003373ffffffffffffffffffffffffffffffffffffffff1673ffffffffffffffffffffffffffffffffffffffff16815260200190815260200160002060008473ffffffffffffffffffffffffffffffffffffffff1673ffffffffffffffffffffffffffffffffffffffff16815260200190815260200160002060008154809291906001019190505550600760008473ffffffffffffffffffffffffffffffffffffffff1673ffffffffffffffffffffffffffffffffffffffff16815260200190815260200160002060003373ffffffffffffffffffffffffffffffffffffffff1673ffffffffffffffffffffffffffffffffffffffff168152602001908152602001600020600081548092919060010191905055506000905060609150505050565b600960019054906101000a900460ff168061125157506112506120df565b5b806112695750600960009054906101000a900460ff16155b6112a8576040517f08c379a000000000000000000000000000000000000000000000000000000000815260040161129f906129a8565b60405180910390fd5b6000600960019054906101000a900460ff1615905080156112fa576001600960016101000a81548160ff0219169083151502179055506001600960006101000a81548160ff0219169083151502179055505b336000806101000a81548173ffffffffffffffffffffffffffffffffffffffff021916908373ffffffffffffffffffffffffffffffffffffffff1602179055506000809054906101000a900473ffffffffffffffffffffffffffffffffffffffff1673ffffffffffffffffffffffffffffffffffffffff16600073ffffffffffffffffffffffffffffffffffffffff167f342827c97908e5e2f71151c08502a66d44b6f758e3ac2f1de95f02eb95f0a73560405160405180910390a361142a6040518060400160405280600881526020017f46616e6b6f757a750000000000000000000000000000000000000000000000008152506040518060400160405280600981526020017f49276d2061646d696e0000000000000000000000000000000000000000000000815250611f5c565b50801561144d576000600960016101000a81548160ff0219169083151502179055505b50565b6000600360003373ffffffffffffffffffffffffffffffffffffffff1673ffffffffffffffffffffffffffffffffffffffff16815260200190815260200160002054116114d2576040517f08c379a00000000000000000000000000000000000000000000000000000000081526004016114c990612988565b60405180910390fd5b6000600360003373ffffffffffffffffffffffffffffffffffffffff1673ffffffffffffffffffffffffffffffffffffffff1681526020019081526020016000205490506040518060400160405280848152602001838152506001828154811061153857fe5b90600052602060002090600202016000820151816000019080519060200190611562929190612110565b50602082015181600101908051906020019061157f929190612110565b50905050505050565b60006115926116a7565b156115d2576040517f08c379a00000000000000000000000000000000000000000000000000000000081526004016115c9906129e8565b60405180910390fd5b6000600360003373ffffffffffffffffffffffffffffffffffffffff1673ffffffffffffffffffffffffffffffffffffffff16815260200190815260200160002054141561162b576116248383611f5c565b9050611678565b6116358383611450565b600360003373ffffffffffffffffffffffffffffffffffffffff1673ffffffffffffffffffffffffffffffffffffffff1681526020019081526020016000205490505b92915050565b60008060009054906101000a900473ffffffffffffffffffffffffffffffffffffffff16905090565b60008060009054906101000a900473ffffffffffffffffffffffffffffffffffffffff1673ffffffffffffffffffffffffffffffffffffffff163373ffffffffffffffffffffffffffffffffffffffff1614905090565b6000809054906101000a900473ffffffffffffffffffffffffffffffffffffffff1673ffffffffffffffffffffffffffffffffffffffff163373ffffffffffffffffffffffffffffffffffffffff161461178d576040517f08c379a000000000000000000000000000000000000000000000000000000000815260040161178490612968565b60405180910390fd5b8073ffffffffffffffffffffffffffffffffffffffff166000809054906101000a900473ffffffffffffffffffffffffffffffffffffffff1673ffffffffffffffffffffffffffffffffffffffff167f342827c97908e5e2f71151c08502a66d44b6f758e3ac2f1de95f02eb95f0a73560405160405180910390a3806000806101000a81548173ffffffffffffffffffffffffffffffffffffffff021916908373ffffffffffffffffffffffffffffffffffffffff16021790555050565b606080600760003373ffffffffffffffffffffffffffffffffffffffff1673ffffffffffffffffffffffffffffffffffffffff16815260200190815260200160002060008473ffffffffffffffffffffffffffffffffffffffff1673ffffffffffffffffffffffffffffffffffffffff1681526020019081526020016000205460405190808252806020026020018201604052801561190457816020015b6118f1612190565b8152602001906001900390816118e95790505b509050600080905060008090505b600680549050811015611c9a573373ffffffffffffffffffffffffffffffffffffffff166006828154811061194357fe5b906000526020600020906004020160020160009054906101000a900473ffffffffffffffffffffffffffffffffffffffff1673ffffffffffffffffffffffffffffffffffffffff16148015611a0157508473ffffffffffffffffffffffffffffffffffffffff16600682815481106119b757fe5b906000526020600020906004020160030160009054906101000a900473ffffffffffffffffffffffffffffffffffffffff1673ffffffffffffffffffffffffffffffffffffffff16145b80611aea57508473ffffffffffffffffffffffffffffffffffffffff1660068281548110611a2b57fe5b906000526020600020906004020160020160009054906101000a900473ffffffffffffffffffffffffffffffffffffffff1673ffffffffffffffffffffffffffffffffffffffff16148015611ae957503373ffffffffffffffffffffffffffffffffffffffff1660068281548110611a9f57fe5b906000526020600020906004020160030160009054906101000a900473ffffffffffffffffffffffffffffffffffffffff1673ffffffffffffffffffffffffffffffffffffffff16145b5b15611c8d5760068181548110611afc57fe5b906000526020600020906004020160405180608001604052908160008201548152602001600182018054600181600116156101000203166002900480601f016020809104026020016040519081016040528092919081815260200182805460018160011615610100020316600290048015611bb85780601f10611b8d57610100808354040283529160200191611bb8565b820191906000526020600020905b815481529060010190602001808311611b9b57829003601f168201915b505050505081526020016002820160009054906101000a900473ffffffffffffffffffffffffffffffffffffffff1673ffffffffffffffffffffffffffffffffffffffff1673ffffffffffffffffffffffffffffffffffffffff1681526020016003820160009054906101000a900473ffffffffffffffffffffffffffffffffffffffff1673ffffffffffffffffffffffffffffffffffffffff1673ffffffffffffffffffffffffffffffffffffffff1681525050838381518110611c7957fe5b602002602001018190525081806001019250505b8080600101915050611912565b508192505050919050565b611cae81610a6c565b15611cee576040517f08c379a0000000000000000000000000000000000000000000000000000000008152600401611ce590612a08565b60405180910390fd5b600460003373ffffffffffffffffffffffffffffffffffffffff1673ffffffffffffffffffffffffffffffffffffffff1681526020019081526020016000208190806001815401808255809150509060018203906000526020600020016000909192909190916101000a81548173ffffffffffffffffffffffffffffffffffffffff021916908373ffffffffffffffffffffffffffffffffffffffff16021790555050600860003373ffffffffffffffffffffffffffffffffffffffff1673ffffffffffffffffffffffffffffffffffffffff1681526020019081526020016000208190806001815401808255809150509060018203906000526020600020016000909192909190916101000a81548173ffffffffffffffffffffffffffffffffffffffff021916908373ffffffffffffffffffffffffffffffffffffffff160217905550508073ffffffffffffffffffffffffffffffffffffffff163373ffffffffffffffffffffffffffffffffffffffff167f6b264e25fc51d09b3568e3483a68260b5b37447c5430b26c83faed6077ab34ba60405160405180910390a350565b6060600860003373ffffffffffffffffffffffffffffffffffffffff1673ffffffffffffffffffffffffffffffffffffffff168152602001908152602001600020805480602002602001604051908101604052809291908181526020018280548015611f5257602002820191906000526020600020905b8160009054906101000a900473ffffffffffffffffffffffffffffffffffffffff1673ffffffffffffffffffffffffffffffffffffffff1681526020019060010190808311611f08575b5050505050905090565b60006001604051806040016040528085815260200184815250908060018154018082558091505090600182039060005260206000209060020201600090919290919091506000820151816000019080519060200190611fbc929190612110565b506020820151816001019080519060200190611fd9929190612110565b50505050600060018080549050039050336002600083815260200190815260200160002060006101000a81548173ffffffffffffffffffffffffffffffffffffffff021916908373ffffffffffffffffffffffffffffffffffffffff16021790555080600360003373ffffffffffffffffffffffffffffffffffffffff1673ffffffffffffffffffffffffffffffffffffffff16815260200190815260200160002081905550600560008154809291906001019190505550803373ffffffffffffffffffffffffffffffffffffffff167f9b6cf03be9f7e948f3e1d617c27f9f46c5b8187ff8ca7bdbede097f7d3b6b34760405160405180910390a38091505092915050565b6000803090506000813b9050600081149250505090565b604051806040016040528060608152602001606081525090565b828054600181600116156101000203166002900490600052602060002090601f016020900481019282601f1061215157805160ff191683800117855561217f565b8280016001018555821561217f579182015b8281111561217e578251825591602001919060010190612163565b5b50905061218c91906121e4565b5090565b60405180608001604052806000815260200160608152602001600073ffffffffffffffffffffffffffffffffffffffff168152602001600073ffffffffffffffffffffffffffffffffffffffff1681525090565b61220691905b808211156122025760008160009055506001016121ea565b5090565b90565b60008135905061221881612c2e565b92915050565b600082601f83011261222f57600080fd5b813561224261223d82612a92565b612a65565b9150808252602083016020830185838301111561225e57600080fd5b612269838284612bdb565b50505092915050565b60008135905061228181612c45565b92915050565b60008151905061229681612c45565b92915050565b6000602082840312156122ae57600080fd5b60006122bc84828501612209565b91505092915050565b600080604083850312156122d857600080fd5b60006122e685828601612209565b925050602083013567ffffffffffffffff81111561230357600080fd5b61230f8582860161221e565b9150509250929050565b6000806040838503121561232c57600080fd5b600083013567ffffffffffffffff81111561234657600080fd5b6123528582860161221e565b925050602083013567ffffffffffffffff81111561236f57600080fd5b61237b8582860161221e565b9150509250929050565b60006020828403121561239757600080fd5b60006123a584828501612272565b91505092915050565b6000602082840312156123c057600080fd5b60006123ce84828501612287565b91505092915050565b60006123e38383612412565b60208301905092915050565b60006123fb8383612780565b905092915050565b61240c81612ba5565b82525050565b61241b81612b5d565b82525050565b61242a81612b5d565b82525050565b61243981612b5d565b82525050565b600061244a82612ade565b6124548185612b19565b935061245f83612abe565b8060005b8381101561249057815161247788826123d7565b975061248283612aff565b925050600181019050612463565b5085935050505092915050565b8082525050565b60006124af82612ae9565b6124b98185612b2a565b9350836020820285016124cb85612ace565b8060005b8581101561250757848403895281516124e885826123ef565b94506124f383612b0c565b925060208a019950506001810190506124cf565b50829750879550505050505092915050565b61252281612b6f565b82525050565b600061253382612af4565b61253d8185612b3b565b935061254d818560208601612bea565b61255681612c1d565b840191505092915050565b600061256c82612af4565b6125768185612b4c565b9350612586818560208601612bea565b61258f81612c1d565b840191505092915050565b60006125a7601283612b4c565b91507f616c7265616479207265676973746572656400000000000000000000000000006000830152602082019050919050565b60006125e7601383612b4c565b91507f43616c6c6572206973206e6f74206f776e6572000000000000000000000000006000830152602082019050919050565b6000612627600e83612b4c565b91507f6e6f7420726567697374657265640000000000000000000000000000000000006000830152602082019050919050565b6000612667602e83612b4c565b91507f436f6e747261637420696e7374616e63652068617320616c726561647920626560008301527f656e20696e697469616c697a65640000000000000000000000000000000000006020830152604082019050919050565b60006126cd601883612b4c565b91507f43616e206e6f742073656e6420746f20796f757273656c6600000000000000006000830152602082019050919050565b600061270d600d83612b4c565b91507f796f7520617265206f776e6572000000000000000000000000000000000000006000830152602082019050919050565b600061274d601683612b4c565b91507f616c726561647920697320796f757220667269656e64000000000000000000006000830152602082019050919050565b60006080830160008301516127986000860182612827565b50602083015184820360208601526127b08282612528565b91505060408301516127c56040860182612412565b5060608301516127d86060860182612412565b508091505092915050565b600060408301600083015184820360008601526128008282612528565b9150506020830151848203602086015261281a8282612528565b9150508091505092915050565b61283081612b9b565b82525050565b61283f81612b9b565b82525050565b600060208201905061285a6000830184612421565b92915050565b6000602082019050818103600083015261287a818461243f565b905092915050565b6000604082019050612897600083018561249d565b6128a46020830184612430565b9392505050565b60006040820190506128c0600083018561249d565b6128cd6020830184612403565b9392505050565b600060208201905081810360008301526128ee81846124a4565b905092915050565b600060208201905061290b6000830184612519565b92915050565b6000604082019050818103600083015261292b8185612561565b9050818103602083015261293f8184612561565b90509392505050565b600060208201905081810360008301526129618161259a565b9050919050565b60006020820190508181036000830152612981816125da565b9050919050565b600060208201905081810360008301526129a18161261a565b9050919050565b600060208201905081810360008301526129c18161265a565b9050919050565b600060208201905081810360008301526129e1816126c0565b9050919050565b60006020820190508181036000830152612a0181612700565b9050919050565b60006020820190508181036000830152612a2181612740565b9050919050565b60006020820190508181036000830152612a4281846127e3565b905092915050565b6000602082019050612a5f6000830184612836565b92915050565b6000604051905081810181811067ffffffffffffffff82111715612a8857600080fd5b8060405250919050565b600067ffffffffffffffff821115612aa957600080fd5b601f19601f8301169050602081019050919050565b6000819050602082019050919050565b6000819050602082019050919050565b600081519050919050565b600081519050919050565b600081519050919050565b6000602082019050919050565b6000602082019050919050565b600082825260208201905092915050565b600082825260208201905092915050565b600082825260208201905092915050565b600082825260208201905092915050565b6000612b6882612b7b565b9050919050565b60008115159050919050565b600073ffffffffffffffffffffffffffffffffffffffff82169050919050565b6000819050919050565b6000612bb082612bb7565b9050919050565b6000612bc282612bc9565b9050919050565b6000612bd482612b7b565b9050919050565b82818337600083830152505050565b60005b83811015612c08578082015181840152602081019050612bed565b83811115612c17576000848401525b50505050565b6000601f19601f8301169050919050565b612c3781612b5d565b8114612c4257600080fd5b50565b612c4e81612b9b565b8114612c5957600080fd5b5056fea365627a7a723158200f62bf26858b37d3ffa779624e76aba615185392b70f153aef56209be06e81066c6578706572696d656e74616cf564736f6c63430005110040",
  "compiler": {
    "name": "solc",
    "version": "0.5.17+commit.d19bba13.Emscripten.clang",
    "optimizer": {
      "enabled": false,
      "runs": 200
    },
    "evmVersion": "petersburg"
  }
}