{
  "fileName": "MineBlockCraft.sol",
  "contractName": "MBCFriend",
  "source": "pragma solidity >=0.5.0 <0.7.0;\npragma experimental ABIEncoderV2;\n\nimport \"@openzeppelin/upgrades/contracts/Initializable.sol\";\n\n\ncontract Owner {\n    address internal _owner;\n\n    event OwnerSet(address indexed oldOwner, address indexed newOwner);\n\n    modifier onlyOwner() {\n        require(msg.sender == _owner, \"Caller is not owner\");\n        _;\n    }\n\n    function changeOwner(address newOwner) public onlyOwner {\n        emit OwnerSet(_owner, newOwner);\n        _owner = newOwner;\n    }\n\n    function owner() public view returns (address) {\n        return _owner;\n    }\n    function isOwner() public view returns (bool) {\n        return msg.sender == _owner;\n    }\n\n}\n\n\ncontract MBCUser is Owner {\n    struct Profile {\n        string Nickname;\n        string Signature;\n    }\n\n    Profile[] public Profiles;\n\n    mapping(uint256 => address) public IdToAddress;\n    mapping(address => uint256) public AddressToId;\n    mapping(address => address[]) internal Friend;\n\n    uint256 public userCount;\n\n    event eventNewUser(address indexed userAddress, uint256 indexed UserId);\n\n    modifier isUser() {\n        require(\n            AddressToId[msg.sender] > 0 || isOwner(),\n            \"not registered\"\n        );\n        _;\n    }\n\n    function _newUser(string memory _Nickname, string memory _Signature)\n        internal\n        returns (uint256 _userId)\n    {\n        Profiles.push(Profile(_Nickname, _Signature));\n        uint256 UserId = Profiles.length - 1;\n\n        IdToAddress[UserId] = msg.sender;\n        AddressToId[msg.sender] = UserId;\n        userCount++;\n\n        emit eventNewUser(msg.sender, UserId);\n\n        return UserId;\n    }\n\n    function newUser(string memory _Nickname, string memory _Signature)\n        public\n        returns (uint256 _userId)\n    {\n        require(\n            AddressToId[msg.sender] == 0 && !isOwner(),\n            \"already registered\"\n        );\n        return _newUser(_Nickname, _Signature);\n    }\n\n    function editProfile(string memory _Nickname, string memory _Signature)\n        public\n    {\n        require(AddressToId[msg.sender] > 0, \"not registered\");\n        uint256 UserId = AddressToId[msg.sender];\n        Profiles[UserId] = Profile(_Nickname, _Signature);\n    }\n\n    function newProfile(string memory _Nickname, string memory _Signature)\n        public\n        returns (uint256 _userId)\n    {\n        require(!isOwner(), \"you are owner\");\n        if (AddressToId[msg.sender] == 0) {\n            return _newUser(_Nickname, _Signature);\n        } else {\n            editProfile(_Nickname, _Signature);\n            return AddressToId[msg.sender];\n        }\n    }\n\n    function getProfile(address _address) public view returns (Profile memory) {\n        if (_address == owner()) {\n            return Profiles[0];\n        } else if (AddressToId[_address] > 0) {\n            return Profiles[AddressToId[_address]];\n        } else {\n            return Profile(\"\", \"\");\n        }\n    }\n}\n\n\nlibrary Search {\n    function indexOf(address[] storage self, address value)\n        public\n        view\n        returns (uint256)\n    {\n        for (uint256 i = 0; i < self.length; i++) {\n            if (self[i] == value) return i;\n        }\n        return uint256(-1);\n    }\n}\n\n\ncontract MBCMessage is MBCUser {\n    struct Message {\n        uint256 time;\n        string content;\n        address fromUser;\n        address toUser;\n    }\n\n    Message[] internal Messages;\n    using Search for address[];\n\n    mapping(address => mapping(address => uint256)) internal messageCount;\n    mapping(address => address[]) internal messageList;\n\n    event newMessage(\n        address indexed fromUser,\n        address indexed toUser,\n        uint256 MessageId\n    );\n\n    function sendMsg(address _toUser, string memory _content) public {\n        require(_toUser != msg.sender, \"Can not send to yourself\");\n        //推入消息列表\n        Messages.push(Message(block.timestamp, _content, msg.sender, _toUser));\n        uint256 MessageId = Messages.length - 1;\n        emit newMessage(msg.sender, _toUser, MessageId);\n        if (messageList[msg.sender].indexOf(_toUser) == uint256(-1)) {\n            messageList[msg.sender].push(_toUser);\n        }\n        if (messageList[_toUser].indexOf(msg.sender) == uint256(-1)) {\n            messageList[_toUser].push(msg.sender);\n        }\n\n        messageCount[msg.sender][_toUser]++;\n        messageCount[_toUser][msg.sender]++;\n        delete MessageId;\n        delete _content;\n    }\n\n    function getMessages(address _toUser)\n        public\n        view\n        returns (Message[] memory)\n    {\n        Message[] memory result = new Message[](\n            messageCount[msg.sender][_toUser]\n        );\n\n        uint256 counter = 0;\n        for (uint256 i = 0; i < Messages.length; i++) {\n            if (\n                (Messages[i].fromUser == msg.sender &&\n                    Messages[i].toUser == _toUser) ||\n                (Messages[i].fromUser == _toUser &&\n                    Messages[i].toUser == msg.sender)\n            ) {\n                result[counter] = Messages[i];\n                counter++;\n            }\n        }\n        return result;\n    }\n\n    function msgList() public view returns (address[] memory) {\n        return messageList[msg.sender];\n    }\n}\n\n\ncontract MBCFriend is MBCUser, MBCMessage {\n    event eventAddFriend(address indexed fromUser, address indexed toUser);\n\n    function addFriend(address _toUser) public {\n        require(!isFriends(_toUser), \"already is your friend\");\n        Friend[msg.sender].push(_toUser);\n        messageList[msg.sender].push(_toUser);\n        emit eventAddFriend(msg.sender, _toUser);\n    }\n\n    function getFriends() public view returns (address[] memory) {\n        return Friend[msg.sender];\n    }\n\n    function isFriends(address _toUser) public view returns (bool) {\n        bool exists = false;\n        for (uint256 i = 0; i < Friend[msg.sender].length; i++) {\n            if (Friend[msg.sender][i] == _toUser) {\n                exists = true;\n            }\n        }\n        return exists;\n    }\n}\n\ncontract MBCCore is MBCFriend,Initializable {\n    function initialize() public initializer {\n        _owner = msg.sender;\n        emit OwnerSet(address(0), _owner);\n        _newUser(\"Fankouzu\", \"I'm admin\");\n    }\n}\n",
  "sourcePath": "contracts/MineBlockCraft.sol",
  "abi": [
    {
      "anonymous": false,
      "inputs": [
        {
          "indexed": true,
          "internalType": "address",
          "name": "oldOwner",
          "type": "address"
        },
        {
          "indexed": true,
          "internalType": "address",
          "name": "newOwner",
          "type": "address"
        }
      ],
      "name": "OwnerSet",
      "type": "event"
    },
    {
      "anonymous": false,
      "inputs": [
        {
          "indexed": true,
          "internalType": "address",
          "name": "fromUser",
          "type": "address"
        },
        {
          "indexed": true,
          "internalType": "address",
          "name": "toUser",
          "type": "address"
        }
      ],
      "name": "eventAddFriend",
      "type": "event"
    },
    {
      "anonymous": false,
      "inputs": [
        {
          "indexed": true,
          "internalType": "address",
          "name": "userAddress",
          "type": "address"
        },
        {
          "indexed": true,
          "internalType": "uint256",
          "name": "UserId",
          "type": "uint256"
        }
      ],
      "name": "eventNewUser",
      "type": "event"
    },
    {
      "anonymous": false,
      "inputs": [
        {
          "indexed": true,
          "internalType": "address",
          "name": "fromUser",
          "type": "address"
        },
        {
          "indexed": true,
          "internalType": "address",
          "name": "toUser",
          "type": "address"
        },
        {
          "indexed": false,
          "internalType": "uint256",
          "name": "MessageId",
          "type": "uint256"
        }
      ],
      "name": "newMessage",
      "type": "event"
    },
    {
      "constant": true,
      "inputs": [
        {
          "internalType": "address",
          "name": "",
          "type": "address"
        }
      ],
      "name": "AddressToId",
      "outputs": [
        {
          "internalType": "uint256",
          "name": "",
          "type": "uint256"
        }
      ],
      "payable": false,
      "stateMutability": "view",
      "type": "function"
    },
    {
      "constant": true,
      "inputs": [
        {
          "internalType": "uint256",
          "name": "",
          "type": "uint256"
        }
      ],
      "name": "IdToAddress",
      "outputs": [
        {
          "internalType": "address",
          "name": "",
          "type": "address"
        }
      ],
      "payable": false,
      "stateMutability": "view",
      "type": "function"
    },
    {
      "constant": true,
      "inputs": [
        {
          "internalType": "uint256",
          "name": "",
          "type": "uint256"
        }
      ],
      "name": "Profiles",
      "outputs": [
        {
          "internalType": "string",
          "name": "Nickname",
          "type": "string"
        },
        {
          "internalType": "string",
          "name": "Signature",
          "type": "string"
        }
      ],
      "payable": false,
      "stateMutability": "view",
      "type": "function"
    },
    {
      "constant": false,
      "inputs": [
        {
          "internalType": "address",
          "name": "_toUser",
          "type": "address"
        }
      ],
      "name": "addFriend",
      "outputs": [],
      "payable": false,
      "stateMutability": "nonpayable",
      "type": "function"
    },
    {
      "constant": false,
      "inputs": [
        {
          "internalType": "address",
          "name": "newOwner",
          "type": "address"
        }
      ],
      "name": "changeOwner",
      "outputs": [],
      "payable": false,
      "stateMutability": "nonpayable",
      "type": "function"
    },
    {
      "constant": false,
      "inputs": [
        {
          "internalType": "string",
          "name": "_Nickname",
          "type": "string"
        },
        {
          "internalType": "string",
          "name": "_Signature",
          "type": "string"
        }
      ],
      "name": "editProfile",
      "outputs": [],
      "payable": false,
      "stateMutability": "nonpayable",
      "type": "function"
    },
    {
      "constant": true,
      "inputs": [],
      "name": "getFriends",
      "outputs": [
        {
          "internalType": "address[]",
          "name": "",
          "type": "address[]"
        }
      ],
      "payable": false,
      "stateMutability": "view",
      "type": "function"
    },
    {
      "constant": true,
      "inputs": [
        {
          "internalType": "address",
          "name": "_toUser",
          "type": "address"
        }
      ],
      "name": "getMessages",
      "outputs": [
        {
          "components": [
            {
              "internalType": "uint256",
              "name": "time",
              "type": "uint256"
            },
            {
              "internalType": "string",
              "name": "content",
              "type": "string"
            },
            {
              "internalType": "address",
              "name": "fromUser",
              "type": "address"
            },
            {
              "internalType": "address",
              "name": "toUser",
              "type": "address"
            }
          ],
          "internalType": "struct MBCMessage.Message[]",
          "name": "",
          "type": "tuple[]"
        }
      ],
      "payable": false,
      "stateMutability": "view",
      "type": "function"
    },
    {
      "constant": true,
      "inputs": [
        {
          "internalType": "address",
          "name": "_address",
          "type": "address"
        }
      ],
      "name": "getProfile",
      "outputs": [
        {
          "components": [
            {
              "internalType": "string",
              "name": "Nickname",
              "type": "string"
            },
            {
              "internalType": "string",
              "name": "Signature",
              "type": "string"
            }
          ],
          "internalType": "struct MBCUser.Profile",
          "name": "",
          "type": "tuple"
        }
      ],
      "payable": false,
      "stateMutability": "view",
      "type": "function"
    },
    {
      "constant": true,
      "inputs": [
        {
          "internalType": "address",
          "name": "_toUser",
          "type": "address"
        }
      ],
      "name": "isFriends",
      "outputs": [
        {
          "internalType": "bool",
          "name": "",
          "type": "bool"
        }
      ],
      "payable": false,
      "stateMutability": "view",
      "type": "function"
    },
    {
      "constant": true,
      "inputs": [],
      "name": "isOwner",
      "outputs": [
        {
          "internalType": "bool",
          "name": "",
          "type": "bool"
        }
      ],
      "payable": false,
      "stateMutability": "view",
      "type": "function"
    },
    {
      "constant": true,
      "inputs": [],
      "name": "msgList",
      "outputs": [
        {
          "internalType": "address[]",
          "name": "",
          "type": "address[]"
        }
      ],
      "payable": false,
      "stateMutability": "view",
      "type": "function"
    },
    {
      "constant": false,
      "inputs": [
        {
          "internalType": "string",
          "name": "_Nickname",
          "type": "string"
        },
        {
          "internalType": "string",
          "name": "_Signature",
          "type": "string"
        }
      ],
      "name": "newProfile",
      "outputs": [
        {
          "internalType": "uint256",
          "name": "_userId",
          "type": "uint256"
        }
      ],
      "payable": false,
      "stateMutability": "nonpayable",
      "type": "function"
    },
    {
      "constant": false,
      "inputs": [
        {
          "internalType": "string",
          "name": "_Nickname",
          "type": "string"
        },
        {
          "internalType": "string",
          "name": "_Signature",
          "type": "string"
        }
      ],
      "name": "newUser",
      "outputs": [
        {
          "internalType": "uint256",
          "name": "_userId",
          "type": "uint256"
        }
      ],
      "payable": false,
      "stateMutability": "nonpayable",
      "type": "function"
    },
    {
      "constant": true,
      "inputs": [],
      "name": "owner",
      "outputs": [
        {
          "internalType": "address",
          "name": "",
          "type": "address"
        }
      ],
      "payable": false,
      "stateMutability": "view",
      "type": "function"
    },
    {
      "constant": false,
      "inputs": [
        {
          "internalType": "address",
          "name": "_toUser",
          "type": "address"
        },
        {
          "internalType": "string",
          "name": "_content",
          "type": "string"
        }
      ],
      "name": "sendMsg",
      "outputs": [],
      "payable": false,
      "stateMutability": "nonpayable",
      "type": "function"
    },
    {
      "constant": true,
      "inputs": [],
      "name": "userCount",
      "outputs": [
        {
          "internalType": "uint256",
          "name": "",
          "type": "uint256"
        }
      ],
      "payable": false,
      "stateMutability": "view",
      "type": "function"
    }
  ],
  "bytecode": "0x608060405234801561001057600080fd5b506129cf806100206000396000f3fe608060405234801561001057600080fd5b506004361061010b5760003560e01c80637b02b2c9116100a25780638f32d59b116100715780638f32d59b146102f3578063a6f9dae114610311578063b2f713221461032d578063d7a1cfe11461035d578063fdd853c5146103795761010b565b80637b02b2c91461026d57806383555335146102895780638b5927e9146102a55780638da5cb5b146102d55761010b565b80634cea965e116100de5780634cea965e146101ac57806357077ad7146101dd5780635c2bc8e51461020d5780636776a1631461023d5761010b565b806307973ccf146101105780630f53a4701461012e5780631f34563c1461015e5780631f8f72701461018e575b600080fd5b610118610397565b604051610125919061277a565b60405180910390f35b61014860048036036101439190810190612052565b61039d565b6040516101559190612758565b60405180910390f35b610178600480360361017391908101906120cf565b610785565b604051610185919061277a565b60405180910390f35b61019661082b565b6040516101a391906125b0565b60405180910390f35b6101c660048036036101c1919081019061213b565b6108f6565b6040516101d4929190612661565b60405180910390f35b6101f760048036036101f29190810190612052565b610a57565b6040516102049190612646565b60405180910390f35b61022760048036036102229190810190612052565b610b72565b604051610234919061277a565b60405180910390f35b6102576004803603610252919081019061213b565b610b8a565b6040516102649190612595565b60405180910390f35b6102876004803603610282919081019061207b565b610bbd565b005b6102a3600480360361029e91908101906120cf565b61121d565b005b6102bf60048036036102ba91908101906120cf565b611355565b6040516102cc919061277a565b60405180910390f35b6102dd61144b565b6040516102ea9190612595565b60405180910390f35b6102fb611474565b6040516103089190612646565b60405180910390f35b61032b60048036036103269190810190612052565b6114cb565b005b61034760048036036103429190810190612052565b611618565b6040516103549190612624565b60405180910390f35b61037760048036036103729190810190612052565b611a72565b005b610381611c5e565b60405161038e91906125b0565b60405180910390f35b60055481565b6103a5611eac565b6103ad61144b565b73ffffffffffffffffffffffffffffffffffffffff168273ffffffffffffffffffffffffffffffffffffffff1614156105525760016000815481106103ee57fe5b9060005260206000209060020201604051806040016040529081600082018054600181600116156101000203166002900480601f0160208091040260200160405190810160405280929190818152602001828054600181600116156101000203166002900480156104a05780601f10610475576101008083540402835291602001916104a0565b820191906000526020600020905b81548152906001019060200180831161048357829003601f168201915b50505050508152602001600182018054600181600116156101000203166002900480601f0160208091040260200160405190810160405280929190818152602001828054600181600116156101000203166002900480156105425780601f1061051757610100808354040283529160200191610542565b820191906000526020600020905b81548152906001019060200180831161052557829003601f168201915b5050505050815250509050610780565b6000600360008473ffffffffffffffffffffffffffffffffffffffff1673ffffffffffffffffffffffffffffffffffffffff16815260200190815260200160002054111561074a576001600360008473ffffffffffffffffffffffffffffffffffffffff1673ffffffffffffffffffffffffffffffffffffffff16815260200190815260200160002054815481106105e657fe5b9060005260206000209060020201604051806040016040529081600082018054600181600116156101000203166002900480601f0160208091040260200160405190810160405280929190818152602001828054600181600116156101000203166002900480156106985780601f1061066d57610100808354040283529160200191610698565b820191906000526020600020905b81548152906001019060200180831161067b57829003601f168201915b50505050508152602001600182018054600181600116156101000203166002900480601f01602080910402602001604051908101604052809291908181526020018280546001816001161561010002031660029004801561073a5780601f1061070f5761010080835404028352916020019161073a565b820191906000526020600020905b81548152906001019060200180831161071d57829003601f168201915b5050505050815250509050610780565b60405180604001604052806040518060200160405280600081525081526020016040518060200160405280600081525081525090505b919050565b600080600360003373ffffffffffffffffffffffffffffffffffffffff1673ffffffffffffffffffffffffffffffffffffffff168152602001908152602001600020541480156107da57506107d8611474565b155b610819576040517f08c379a000000000000000000000000000000000000000000000000000000000815260040161081090612698565b60405180910390fd5b6108238383611d29565b905092915050565b6060600460003373ffffffffffffffffffffffffffffffffffffffff1673ffffffffffffffffffffffffffffffffffffffff1681526020019081526020016000208054806020026020016040519081016040528092919081815260200182805480156108ec57602002820191906000526020600020905b8160009054906101000a900473ffffffffffffffffffffffffffffffffffffffff1673ffffffffffffffffffffffffffffffffffffffff16815260200190600101908083116108a2575b5050505050905090565b6001818154811061090357fe5b9060005260206000209060020201600091509050806000018054600181600116156101000203166002900480601f0160208091040260200160405190810160405280929190818152602001828054600181600116156101000203166002900480156109af5780601f10610984576101008083540402835291602001916109af565b820191906000526020600020905b81548152906001019060200180831161099257829003601f168201915b505050505090806001018054600181600116156101000203166002900480601f016020809104026020016040519081016040528092919081815260200182805460018160011615610100020316600290048015610a4d5780601f10610a2257610100808354040283529160200191610a4d565b820191906000526020600020905b815481529060010190602001808311610a3057829003601f168201915b5050505050905082565b6000806000905060008090505b600460003373ffffffffffffffffffffffffffffffffffffffff1673ffffffffffffffffffffffffffffffffffffffff16815260200190815260200160002080549050811015610b68578373ffffffffffffffffffffffffffffffffffffffff16600460003373ffffffffffffffffffffffffffffffffffffffff1673ffffffffffffffffffffffffffffffffffffffff1681526020019081526020016000208281548110610b0f57fe5b9060005260206000200160009054906101000a900473ffffffffffffffffffffffffffffffffffffffff1673ffffffffffffffffffffffffffffffffffffffff161415610b5b57600191505b8080600101915050610a64565b5080915050919050565b60036020528060005260406000206000915090505481565b60026020528060005260406000206000915054906101000a900473ffffffffffffffffffffffffffffffffffffffff1681565b3373ffffffffffffffffffffffffffffffffffffffff168273ffffffffffffffffffffffffffffffffffffffff161415610c2c576040517f08c379a0000000000000000000000000000000000000000000000000000000008152600401610c23906126f8565b60405180910390fd5b600660405180608001604052804281526020018381526020013373ffffffffffffffffffffffffffffffffffffffff1681526020018473ffffffffffffffffffffffffffffffffffffffff1681525090806001815401808255809150509060018203906000526020600020906004020160009091929091909150600082015181600001556020820151816001019080519060200190610ccc929190611ec6565b5060408201518160020160006101000a81548173ffffffffffffffffffffffffffffffffffffffff021916908373ffffffffffffffffffffffffffffffffffffffff16021790555060608201518160030160006101000a81548173ffffffffffffffffffffffffffffffffffffffff021916908373ffffffffffffffffffffffffffffffffffffffff160217905550505050600060016006805490500390508273ffffffffffffffffffffffffffffffffffffffff163373ffffffffffffffffffffffffffffffffffffffff167f77fce3d644d187c48dee687c98653e76ea55d8aecf5ed4ac8f202d4d045c38c683604051610dc8919061277a565b60405180910390a37fffffffffffffffffffffffffffffffffffffffffffffffffffffffffffffffff600860003373ffffffffffffffffffffffffffffffffffffffff1673ffffffffffffffffffffffffffffffffffffffff16815260200190815260200160002073__Search________________________________634bb978bc9091866040518363ffffffff1660e01b8152600401610e6a9291906125d2565b60206040518083038186803b158015610e8257600080fd5b505af4158015610e96573d6000803e3d6000fd5b505050506040513d601f19601f82011682018060405250610eba9190810190612164565b1415610f6457600860003373ffffffffffffffffffffffffffffffffffffffff1673ffffffffffffffffffffffffffffffffffffffff1681526020019081526020016000208390806001815401808255809150509060018203906000526020600020016000909192909190916101000a81548173ffffffffffffffffffffffffffffffffffffffff021916908373ffffffffffffffffffffffffffffffffffffffff160217905550505b7fffffffffffffffffffffffffffffffffffffffffffffffffffffffffffffffff600860008573ffffffffffffffffffffffffffffffffffffffff1673ffffffffffffffffffffffffffffffffffffffff16815260200190815260200160002073__Search________________________________634bb978bc9091336040518363ffffffff1660e01b8152600401610ffe9291906125fb565b60206040518083038186803b15801561101657600080fd5b505af415801561102a573d6000803e3d6000fd5b505050506040513d601f19601f8201168201806040525061104e9190810190612164565b14156110f857600860008473ffffffffffffffffffffffffffffffffffffffff1673ffffffffffffffffffffffffffffffffffffffff1681526020019081526020016000203390806001815401808255809150509060018203906000526020600020016000909192909190916101000a81548173ffffffffffffffffffffffffffffffffffffffff021916908373ffffffffffffffffffffffffffffffffffffffff160217905550505b600760003373ffffffffffffffffffffffffffffffffffffffff1673ffffffffffffffffffffffffffffffffffffffff16815260200190815260200160002060008473ffffffffffffffffffffffffffffffffffffffff1673ffffffffffffffffffffffffffffffffffffffff16815260200190815260200160002060008154809291906001019190505550600760008473ffffffffffffffffffffffffffffffffffffffff1673ffffffffffffffffffffffffffffffffffffffff16815260200190815260200160002060003373ffffffffffffffffffffffffffffffffffffffff1673ffffffffffffffffffffffffffffffffffffffff168152602001908152602001600020600081548092919060010191905055506000905060609150505050565b6000600360003373ffffffffffffffffffffffffffffffffffffffff1673ffffffffffffffffffffffffffffffffffffffff168152602001908152602001600020541161129f576040517f08c379a0000000000000000000000000000000000000000000000000000000008152600401611296906126d8565b60405180910390fd5b6000600360003373ffffffffffffffffffffffffffffffffffffffff1673ffffffffffffffffffffffffffffffffffffffff1681526020019081526020016000205490506040518060400160405280848152602001838152506001828154811061130557fe5b9060005260206000209060020201600082015181600001908051906020019061132f929190611ec6565b50602082015181600101908051906020019061134c929190611ec6565b50905050505050565b600061135f611474565b1561139f576040517f08c379a000000000000000000000000000000000000000000000000000000000815260040161139690612718565b60405180910390fd5b6000600360003373ffffffffffffffffffffffffffffffffffffffff1673ffffffffffffffffffffffffffffffffffffffff1681526020019081526020016000205414156113f8576113f18383611d29565b9050611445565b611402838361121d565b600360003373ffffffffffffffffffffffffffffffffffffffff1673ffffffffffffffffffffffffffffffffffffffff1681526020019081526020016000205490505b92915050565b60008060009054906101000a900473ffffffffffffffffffffffffffffffffffffffff16905090565b60008060009054906101000a900473ffffffffffffffffffffffffffffffffffffffff1673ffffffffffffffffffffffffffffffffffffffff163373ffffffffffffffffffffffffffffffffffffffff1614905090565b6000809054906101000a900473ffffffffffffffffffffffffffffffffffffffff1673ffffffffffffffffffffffffffffffffffffffff163373ffffffffffffffffffffffffffffffffffffffff161461155a576040517f08c379a0000000000000000000000000000000000000000000000000000000008152600401611551906126b8565b60405180910390fd5b8073ffffffffffffffffffffffffffffffffffffffff166000809054906101000a900473ffffffffffffffffffffffffffffffffffffffff1673ffffffffffffffffffffffffffffffffffffffff167f342827c97908e5e2f71151c08502a66d44b6f758e3ac2f1de95f02eb95f0a73560405160405180910390a3806000806101000a81548173ffffffffffffffffffffffffffffffffffffffff021916908373ffffffffffffffffffffffffffffffffffffffff16021790555050565b606080600760003373ffffffffffffffffffffffffffffffffffffffff1673ffffffffffffffffffffffffffffffffffffffff16815260200190815260200160002060008473ffffffffffffffffffffffffffffffffffffffff1673ffffffffffffffffffffffffffffffffffffffff168152602001908152602001600020546040519080825280602002602001820160405280156116d157816020015b6116be611f46565b8152602001906001900390816116b65790505b509050600080905060008090505b600680549050811015611a67573373ffffffffffffffffffffffffffffffffffffffff166006828154811061171057fe5b906000526020600020906004020160020160009054906101000a900473ffffffffffffffffffffffffffffffffffffffff1673ffffffffffffffffffffffffffffffffffffffff161480156117ce57508473ffffffffffffffffffffffffffffffffffffffff166006828154811061178457fe5b906000526020600020906004020160030160009054906101000a900473ffffffffffffffffffffffffffffffffffffffff1673ffffffffffffffffffffffffffffffffffffffff16145b806118b757508473ffffffffffffffffffffffffffffffffffffffff16600682815481106117f857fe5b906000526020600020906004020160020160009054906101000a900473ffffffffffffffffffffffffffffffffffffffff1673ffffffffffffffffffffffffffffffffffffffff161480156118b657503373ffffffffffffffffffffffffffffffffffffffff166006828154811061186c57fe5b906000526020600020906004020160030160009054906101000a900473ffffffffffffffffffffffffffffffffffffffff1673ffffffffffffffffffffffffffffffffffffffff16145b5b15611a5a57600681815481106118c957fe5b906000526020600020906004020160405180608001604052908160008201548152602001600182018054600181600116156101000203166002900480601f0160208091040260200160405190810160405280929190818152602001828054600181600116156101000203166002900480156119855780601f1061195a57610100808354040283529160200191611985565b820191906000526020600020905b81548152906001019060200180831161196857829003601f168201915b505050505081526020016002820160009054906101000a900473ffffffffffffffffffffffffffffffffffffffff1673ffffffffffffffffffffffffffffffffffffffff1673ffffffffffffffffffffffffffffffffffffffff1681526020016003820160009054906101000a900473ffffffffffffffffffffffffffffffffffffffff1673ffffffffffffffffffffffffffffffffffffffff1673ffffffffffffffffffffffffffffffffffffffff1681525050838381518110611a4657fe5b602002602001018190525081806001019250505b80806001019150506116df565b508192505050919050565b611a7b81610a57565b15611abb576040517f08c379a0000000000000000000000000000000000000000000000000000000008152600401611ab290612738565b60405180910390fd5b600460003373ffffffffffffffffffffffffffffffffffffffff1673ffffffffffffffffffffffffffffffffffffffff1681526020019081526020016000208190806001815401808255809150509060018203906000526020600020016000909192909190916101000a81548173ffffffffffffffffffffffffffffffffffffffff021916908373ffffffffffffffffffffffffffffffffffffffff16021790555050600860003373ffffffffffffffffffffffffffffffffffffffff1673ffffffffffffffffffffffffffffffffffffffff1681526020019081526020016000208190806001815401808255809150509060018203906000526020600020016000909192909190916101000a81548173ffffffffffffffffffffffffffffffffffffffff021916908373ffffffffffffffffffffffffffffffffffffffff160217905550508073ffffffffffffffffffffffffffffffffffffffff163373ffffffffffffffffffffffffffffffffffffffff167f6b264e25fc51d09b3568e3483a68260b5b37447c5430b26c83faed6077ab34ba60405160405180910390a350565b6060600860003373ffffffffffffffffffffffffffffffffffffffff1673ffffffffffffffffffffffffffffffffffffffff168152602001908152602001600020805480602002602001604051908101604052809291908181526020018280548015611d1f57602002820191906000526020600020905b8160009054906101000a900473ffffffffffffffffffffffffffffffffffffffff1673ffffffffffffffffffffffffffffffffffffffff1681526020019060010190808311611cd5575b5050505050905090565b60006001604051806040016040528085815260200184815250908060018154018082558091505090600182039060005260206000209060020201600090919290919091506000820151816000019080519060200190611d89929190611ec6565b506020820151816001019080519060200190611da6929190611ec6565b50505050600060018080549050039050336002600083815260200190815260200160002060006101000a81548173ffffffffffffffffffffffffffffffffffffffff021916908373ffffffffffffffffffffffffffffffffffffffff16021790555080600360003373ffffffffffffffffffffffffffffffffffffffff1673ffffffffffffffffffffffffffffffffffffffff16815260200190815260200160002081905550600560008154809291906001019190505550803373ffffffffffffffffffffffffffffffffffffffff167f9b6cf03be9f7e948f3e1d617c27f9f46c5b8187ff8ca7bdbede097f7d3b6b34760405160405180910390a38091505092915050565b604051806040016040528060608152602001606081525090565b828054600181600116156101000203166002900490600052602060002090601f016020900481019282601f10611f0757805160ff1916838001178555611f35565b82800160010185558215611f35579182015b82811115611f34578251825591602001919060010190611f19565b5b509050611f429190611f9a565b5090565b60405180608001604052806000815260200160608152602001600073ffffffffffffffffffffffffffffffffffffffff168152602001600073ffffffffffffffffffffffffffffffffffffffff1681525090565b611fbc91905b80821115611fb8576000816000905550600101611fa0565b5090565b90565b600081359050611fce8161295e565b92915050565b600082601f830112611fe557600080fd5b8135611ff8611ff3826127c2565b612795565b9150808252602083016020830185838301111561201457600080fd5b61201f83828461290b565b50505092915050565b60008135905061203781612975565b92915050565b60008151905061204c81612975565b92915050565b60006020828403121561206457600080fd5b600061207284828501611fbf565b91505092915050565b6000806040838503121561208e57600080fd5b600061209c85828601611fbf565b925050602083013567ffffffffffffffff8111156120b957600080fd5b6120c585828601611fd4565b9150509250929050565b600080604083850312156120e257600080fd5b600083013567ffffffffffffffff8111156120fc57600080fd5b61210885828601611fd4565b925050602083013567ffffffffffffffff81111561212557600080fd5b61213185828601611fd4565b9150509250929050565b60006020828403121561214d57600080fd5b600061215b84828501612028565b91505092915050565b60006020828403121561217657600080fd5b60006121848482850161203d565b91505092915050565b600061219983836121c8565b60208301905092915050565b60006121b183836124d0565b905092915050565b6121c2816128d5565b82525050565b6121d18161288d565b82525050565b6121e08161288d565b82525050565b6121ef8161288d565b82525050565b60006122008261280e565b61220a8185612849565b9350612215836127ee565b8060005b8381101561224657815161222d888261218d565b97506122388361282f565b925050600181019050612219565b5085935050505092915050565b8082525050565b600061226582612819565b61226f818561285a565b935083602082028501612281856127fe565b8060005b858110156122bd578484038952815161229e85826121a5565b94506122a98361283c565b925060208a01995050600181019050612285565b50829750879550505050505092915050565b6122d88161289f565b82525050565b60006122e982612824565b6122f3818561286b565b935061230381856020860161291a565b61230c8161294d565b840191505092915050565b600061232282612824565b61232c818561287c565b935061233c81856020860161291a565b6123458161294d565b840191505092915050565b600061235d60128361287c565b91507f616c7265616479207265676973746572656400000000000000000000000000006000830152602082019050919050565b600061239d60138361287c565b91507f43616c6c6572206973206e6f74206f776e6572000000000000000000000000006000830152602082019050919050565b60006123dd600e8361287c565b91507f6e6f7420726567697374657265640000000000000000000000000000000000006000830152602082019050919050565b600061241d60188361287c565b91507f43616e206e6f742073656e6420746f20796f757273656c6600000000000000006000830152602082019050919050565b600061245d600d8361287c565b91507f796f7520617265206f776e6572000000000000000000000000000000000000006000830152602082019050919050565b600061249d60168361287c565b91507f616c726561647920697320796f757220667269656e64000000000000000000006000830152602082019050919050565b60006080830160008301516124e86000860182612577565b506020830151848203602086015261250082826122de565b915050604083015161251560408601826121c8565b50606083015161252860608601826121c8565b508091505092915050565b6000604083016000830151848203600086015261255082826122de565b9150506020830151848203602086015261256a82826122de565b9150508091505092915050565b612580816128cb565b82525050565b61258f816128cb565b82525050565b60006020820190506125aa60008301846121d7565b92915050565b600060208201905081810360008301526125ca81846121f5565b905092915050565b60006040820190506125e76000830185612253565b6125f460208301846121e6565b9392505050565b60006040820190506126106000830185612253565b61261d60208301846121b9565b9392505050565b6000602082019050818103600083015261263e818461225a565b905092915050565b600060208201905061265b60008301846122cf565b92915050565b6000604082019050818103600083015261267b8185612317565b9050818103602083015261268f8184612317565b90509392505050565b600060208201905081810360008301526126b181612350565b9050919050565b600060208201905081810360008301526126d181612390565b9050919050565b600060208201905081810360008301526126f1816123d0565b9050919050565b6000602082019050818103600083015261271181612410565b9050919050565b6000602082019050818103600083015261273181612450565b9050919050565b6000602082019050818103600083015261275181612490565b9050919050565b600060208201905081810360008301526127728184612533565b905092915050565b600060208201905061278f6000830184612586565b92915050565b6000604051905081810181811067ffffffffffffffff821117156127b857600080fd5b8060405250919050565b600067ffffffffffffffff8211156127d957600080fd5b601f19601f8301169050602081019050919050565b6000819050602082019050919050565b6000819050602082019050919050565b600081519050919050565b600081519050919050565b600081519050919050565b6000602082019050919050565b6000602082019050919050565b600082825260208201905092915050565b600082825260208201905092915050565b600082825260208201905092915050565b600082825260208201905092915050565b6000612898826128ab565b9050919050565b60008115159050919050565b600073ffffffffffffffffffffffffffffffffffffffff82169050919050565b6000819050919050565b60006128e0826128e7565b9050919050565b60006128f2826128f9565b9050919050565b6000612904826128ab565b9050919050565b82818337600083830152505050565b60005b8381101561293857808201518184015260208101905061291d565b83811115612947576000848401525b50505050565b6000601f19601f8301169050919050565b6129678161288d565b811461297257600080fd5b50565b61297e816128cb565b811461298957600080fd5b5056fea365627a7a723158209e14fd5f1cf4d4b0873a8843765338645e84aebafd9955043f981d984cfa68586c6578706572696d656e74616cf564736f6c63430005110040",
  "compiler": {
    "name": "solc",
    "version": "0.5.17+commit.d19bba13.Emscripten.clang",
    "optimizer": {
      "enabled": false,
      "runs": 200
    },
    "evmVersion": "petersburg"
  }
}