{
  "fileName": "MineBlockCraft.sol",
  "contractName": "MBCMessage",
  "source": "pragma solidity >=0.5.0 <0.7.0;\npragma experimental ABIEncoderV2;\n\nimport \"@openzeppelin/upgrades/contracts/Initializable.sol\";\n\n\ncontract Owner {\n    address internal _owner;\n\n    event OwnerSet(address indexed oldOwner, address indexed newOwner);\n\n    modifier onlyOwner() {\n        require(msg.sender == _owner, \"Caller is not owner\");\n        _;\n    }\n\n    function changeOwner(address newOwner) public onlyOwner {\n        emit OwnerSet(_owner, newOwner);\n        _owner = newOwner;\n    }\n\n    function owner() public view returns (address) {\n        return _owner;\n    }\n    function isOwner() public view returns (bool) {\n        return msg.sender == _owner;\n    }\n\n}\n\n\ncontract MBCUser is Owner {\n    struct Profile {\n        string Nickname;\n        string Signature;\n    }\n\n    Profile[] public Profiles;\n\n    mapping(uint256 => address) public IdToAddress;\n    mapping(address => uint256) public AddressToId;\n    mapping(address => address[]) internal Friend;\n\n    uint256 public userCount;\n\n    event eventNewUser(address indexed userAddress, uint256 indexed UserId);\n\n    modifier isUser() {\n        require(\n            AddressToId[msg.sender] > 0 || isOwner(),\n            \"not registered\"\n        );\n        _;\n    }\n\n    function _newUser(string memory _Nickname, string memory _Signature)\n        internal\n        returns (uint256 _userId)\n    {\n        Profiles.push(Profile(_Nickname, _Signature));\n        uint256 UserId = Profiles.length - 1;\n\n        IdToAddress[UserId] = msg.sender;\n        AddressToId[msg.sender] = UserId;\n        userCount++;\n\n        emit eventNewUser(msg.sender, UserId);\n\n        return UserId;\n    }\n\n    function newUser(string memory _Nickname, string memory _Signature)\n        public\n        returns (uint256 _userId)\n    {\n        require(\n            AddressToId[msg.sender] == 0 && !isOwner(),\n            \"already registered\"\n        );\n        return _newUser(_Nickname, _Signature);\n    }\n\n    function editProfile(string memory _Nickname, string memory _Signature)\n        public\n    {\n        require(AddressToId[msg.sender] > 0, \"not registered\");\n        uint256 UserId = AddressToId[msg.sender];\n        Profiles[UserId] = Profile(_Nickname, _Signature);\n    }\n\n    function newProfile(string memory _Nickname, string memory _Signature)\n        public\n        returns (uint256 _userId)\n    {\n        require(!isOwner(), \"you are owner\");\n        if (AddressToId[msg.sender] == 0) {\n            return _newUser(_Nickname, _Signature);\n        } else {\n            editProfile(_Nickname, _Signature);\n            return AddressToId[msg.sender];\n        }\n    }\n\n    function getProfile(address _address) public view returns (Profile memory) {\n        if (_address == owner()) {\n            return Profiles[0];\n        } else if (AddressToId[_address] > 0) {\n            return Profiles[AddressToId[_address]];\n        } else {\n            return Profile(\"\", \"\");\n        }\n    }\n}\n\n\nlibrary Search {\n    function indexOf(address[] storage self, address value)\n        public\n        view\n        returns (uint256)\n    {\n        for (uint256 i = 0; i < self.length; i++) {\n            if (self[i] == value) return i;\n        }\n        return uint256(-1);\n    }\n}\n\n\ncontract MBCMessage is MBCUser {\n    struct Message {\n        uint256 time;\n        string content;\n        address fromUser;\n        address toUser;\n    }\n\n    Message[] internal Messages;\n    using Search for address[];\n\n    mapping(address => mapping(address => uint256)) internal messageCount;\n    mapping(address => address[]) internal messageList;\n\n    event newMessage(\n        address indexed fromUser,\n        address indexed toUser,\n        uint256 MessageId\n    );\n\n    function sendMsg(address _toUser, string memory _content) public {\n        require(_toUser != msg.sender, \"Can not send to yourself\");\n        //推入消息列表\n        Messages.push(Message(block.timestamp, _content, msg.sender, _toUser));\n        uint256 MessageId = Messages.length - 1;\n        emit newMessage(msg.sender, _toUser, MessageId);\n        if (messageList[msg.sender].indexOf(_toUser) == uint256(-1)) {\n            messageList[msg.sender].push(_toUser);\n        }\n        if (messageList[_toUser].indexOf(msg.sender) == uint256(-1)) {\n            messageList[_toUser].push(msg.sender);\n        }\n\n        messageCount[msg.sender][_toUser]++;\n        messageCount[_toUser][msg.sender]++;\n        delete MessageId;\n        delete _content;\n    }\n\n    function getMessages(address _toUser)\n        public\n        view\n        returns (Message[] memory)\n    {\n        Message[] memory result = new Message[](\n            messageCount[msg.sender][_toUser]\n        );\n\n        uint256 counter = 0;\n        for (uint256 i = 0; i < Messages.length; i++) {\n            if (\n                (Messages[i].fromUser == msg.sender &&\n                    Messages[i].toUser == _toUser) ||\n                (Messages[i].fromUser == _toUser &&\n                    Messages[i].toUser == msg.sender)\n            ) {\n                result[counter] = Messages[i];\n                counter++;\n            }\n        }\n        return result;\n    }\n\n    function msgList() public view returns (address[] memory) {\n        return messageList[msg.sender];\n    }\n}\n\n\ncontract MBCFriend is MBCUser, MBCMessage {\n    event eventAddFriend(address indexed fromUser, address indexed toUser);\n\n    function addFriend(address _toUser) public {\n        require(!isFriends(_toUser), \"already is your friend\");\n        Friend[msg.sender].push(_toUser);\n        messageList[msg.sender].push(_toUser);\n        emit eventAddFriend(msg.sender, _toUser);\n    }\n\n    function getFriends() public view returns (address[] memory) {\n        return Friend[msg.sender];\n    }\n\n    function isFriends(address _toUser) public view returns (bool) {\n        bool exists = false;\n        for (uint256 i = 0; i < Friend[msg.sender].length; i++) {\n            if (Friend[msg.sender][i] == _toUser) {\n                exists = true;\n            }\n        }\n        return exists;\n    }\n}\n\ncontract MBCCore is MBCFriend,Initializable {\n    function initialize() public initializer {\n        _owner = msg.sender;\n        emit OwnerSet(address(0), _owner);\n        _newUser(\"Fankouzu\", \"I'm admin\");\n    }\n}\n",
  "sourcePath": "contracts/MineBlockCraft.sol",
  "abi": [
    {
      "anonymous": false,
      "inputs": [
        {
          "indexed": true,
          "internalType": "address",
          "name": "oldOwner",
          "type": "address"
        },
        {
          "indexed": true,
          "internalType": "address",
          "name": "newOwner",
          "type": "address"
        }
      ],
      "name": "OwnerSet",
      "type": "event"
    },
    {
      "anonymous": false,
      "inputs": [
        {
          "indexed": true,
          "internalType": "address",
          "name": "userAddress",
          "type": "address"
        },
        {
          "indexed": true,
          "internalType": "uint256",
          "name": "UserId",
          "type": "uint256"
        }
      ],
      "name": "eventNewUser",
      "type": "event"
    },
    {
      "anonymous": false,
      "inputs": [
        {
          "indexed": true,
          "internalType": "address",
          "name": "fromUser",
          "type": "address"
        },
        {
          "indexed": true,
          "internalType": "address",
          "name": "toUser",
          "type": "address"
        },
        {
          "indexed": false,
          "internalType": "uint256",
          "name": "MessageId",
          "type": "uint256"
        }
      ],
      "name": "newMessage",
      "type": "event"
    },
    {
      "constant": true,
      "inputs": [
        {
          "internalType": "address",
          "name": "",
          "type": "address"
        }
      ],
      "name": "AddressToId",
      "outputs": [
        {
          "internalType": "uint256",
          "name": "",
          "type": "uint256"
        }
      ],
      "payable": false,
      "stateMutability": "view",
      "type": "function"
    },
    {
      "constant": true,
      "inputs": [
        {
          "internalType": "uint256",
          "name": "",
          "type": "uint256"
        }
      ],
      "name": "IdToAddress",
      "outputs": [
        {
          "internalType": "address",
          "name": "",
          "type": "address"
        }
      ],
      "payable": false,
      "stateMutability": "view",
      "type": "function"
    },
    {
      "constant": true,
      "inputs": [
        {
          "internalType": "uint256",
          "name": "",
          "type": "uint256"
        }
      ],
      "name": "Profiles",
      "outputs": [
        {
          "internalType": "string",
          "name": "Nickname",
          "type": "string"
        },
        {
          "internalType": "string",
          "name": "Signature",
          "type": "string"
        }
      ],
      "payable": false,
      "stateMutability": "view",
      "type": "function"
    },
    {
      "constant": false,
      "inputs": [
        {
          "internalType": "address",
          "name": "newOwner",
          "type": "address"
        }
      ],
      "name": "changeOwner",
      "outputs": [],
      "payable": false,
      "stateMutability": "nonpayable",
      "type": "function"
    },
    {
      "constant": false,
      "inputs": [
        {
          "internalType": "string",
          "name": "_Nickname",
          "type": "string"
        },
        {
          "internalType": "string",
          "name": "_Signature",
          "type": "string"
        }
      ],
      "name": "editProfile",
      "outputs": [],
      "payable": false,
      "stateMutability": "nonpayable",
      "type": "function"
    },
    {
      "constant": true,
      "inputs": [
        {
          "internalType": "address",
          "name": "_toUser",
          "type": "address"
        }
      ],
      "name": "getMessages",
      "outputs": [
        {
          "components": [
            {
              "internalType": "uint256",
              "name": "time",
              "type": "uint256"
            },
            {
              "internalType": "string",
              "name": "content",
              "type": "string"
            },
            {
              "internalType": "address",
              "name": "fromUser",
              "type": "address"
            },
            {
              "internalType": "address",
              "name": "toUser",
              "type": "address"
            }
          ],
          "internalType": "struct MBCMessage.Message[]",
          "name": "",
          "type": "tuple[]"
        }
      ],
      "payable": false,
      "stateMutability": "view",
      "type": "function"
    },
    {
      "constant": true,
      "inputs": [
        {
          "internalType": "address",
          "name": "_address",
          "type": "address"
        }
      ],
      "name": "getProfile",
      "outputs": [
        {
          "components": [
            {
              "internalType": "string",
              "name": "Nickname",
              "type": "string"
            },
            {
              "internalType": "string",
              "name": "Signature",
              "type": "string"
            }
          ],
          "internalType": "struct MBCUser.Profile",
          "name": "",
          "type": "tuple"
        }
      ],
      "payable": false,
      "stateMutability": "view",
      "type": "function"
    },
    {
      "constant": true,
      "inputs": [],
      "name": "isOwner",
      "outputs": [
        {
          "internalType": "bool",
          "name": "",
          "type": "bool"
        }
      ],
      "payable": false,
      "stateMutability": "view",
      "type": "function"
    },
    {
      "constant": true,
      "inputs": [],
      "name": "msgList",
      "outputs": [
        {
          "internalType": "address[]",
          "name": "",
          "type": "address[]"
        }
      ],
      "payable": false,
      "stateMutability": "view",
      "type": "function"
    },
    {
      "constant": false,
      "inputs": [
        {
          "internalType": "string",
          "name": "_Nickname",
          "type": "string"
        },
        {
          "internalType": "string",
          "name": "_Signature",
          "type": "string"
        }
      ],
      "name": "newProfile",
      "outputs": [
        {
          "internalType": "uint256",
          "name": "_userId",
          "type": "uint256"
        }
      ],
      "payable": false,
      "stateMutability": "nonpayable",
      "type": "function"
    },
    {
      "constant": false,
      "inputs": [
        {
          "internalType": "string",
          "name": "_Nickname",
          "type": "string"
        },
        {
          "internalType": "string",
          "name": "_Signature",
          "type": "string"
        }
      ],
      "name": "newUser",
      "outputs": [
        {
          "internalType": "uint256",
          "name": "_userId",
          "type": "uint256"
        }
      ],
      "payable": false,
      "stateMutability": "nonpayable",
      "type": "function"
    },
    {
      "constant": true,
      "inputs": [],
      "name": "owner",
      "outputs": [
        {
          "internalType": "address",
          "name": "",
          "type": "address"
        }
      ],
      "payable": false,
      "stateMutability": "view",
      "type": "function"
    },
    {
      "constant": false,
      "inputs": [
        {
          "internalType": "address",
          "name": "_toUser",
          "type": "address"
        },
        {
          "internalType": "string",
          "name": "_content",
          "type": "string"
        }
      ],
      "name": "sendMsg",
      "outputs": [],
      "payable": false,
      "stateMutability": "nonpayable",
      "type": "function"
    },
    {
      "constant": true,
      "inputs": [],
      "name": "userCount",
      "outputs": [
        {
          "internalType": "uint256",
          "name": "",
          "type": "uint256"
        }
      ],
      "payable": false,
      "stateMutability": "view",
      "type": "function"
    }
  ],
  "bytecode": "0x608060405234801561001057600080fd5b50612512806100206000396000f3fe608060405234801561001057600080fd5b50600436106100ea5760003560e01c8063835553351161008c5780638f32d59b116100665780638f32d59b14610284578063a6f9dae1146102a2578063b2f71322146102be578063fdd853c5146102ee576100ea565b8063835553351461021a5780638b5927e9146102365780638da5cb5b14610266576100ea565b80634cea965e116100c85780634cea965e1461016d5780635c2bc8e51461019e5780636776a163146101ce5780637b02b2c9146101fe576100ea565b806307973ccf146100ef5780630f53a4701461010d5780631f34563c1461013d575b600080fd5b6100f761030c565b60405161010491906122bd565b60405180910390f35b61012760048036036101229190810190611bf5565b610312565b604051610134919061229b565b60405180910390f35b61015760048036036101529190810190611c72565b6106fa565b60405161016491906122bd565b60405180910390f35b61018760048036036101829190810190611cde565b6107a0565b6040516101959291906121c4565b60405180910390f35b6101b860048036036101b39190810190611bf5565b610901565b6040516101c591906122bd565b60405180910390f35b6101e860048036036101e39190810190611cde565b610919565b6040516101f591906120f8565b60405180910390f35b61021860048036036102139190810190611c1e565b61094c565b005b610234600480360361022f9190810190611c72565b610fac565b005b610250600480360361024b9190810190611c72565b6110e4565b60405161025d91906122bd565b60405180910390f35b61026e6111da565b60405161027b91906120f8565b60405180910390f35b61028c611203565b60405161029991906121a9565b60405180910390f35b6102bc60048036036102b79190810190611bf5565b61125a565b005b6102d860048036036102d39190810190611bf5565b6113a7565b6040516102e59190612187565b60405180910390f35b6102f6611801565b6040516103039190612113565b60405180910390f35b60055481565b61031a611a4f565b6103226111da565b73ffffffffffffffffffffffffffffffffffffffff168273ffffffffffffffffffffffffffffffffffffffff1614156104c757600160008154811061036357fe5b9060005260206000209060020201604051806040016040529081600082018054600181600116156101000203166002900480601f0160208091040260200160405190810160405280929190818152602001828054600181600116156101000203166002900480156104155780601f106103ea57610100808354040283529160200191610415565b820191906000526020600020905b8154815290600101906020018083116103f857829003601f168201915b50505050508152602001600182018054600181600116156101000203166002900480601f0160208091040260200160405190810160405280929190818152602001828054600181600116156101000203166002900480156104b75780601f1061048c576101008083540402835291602001916104b7565b820191906000526020600020905b81548152906001019060200180831161049a57829003601f168201915b50505050508152505090506106f5565b6000600360008473ffffffffffffffffffffffffffffffffffffffff1673ffffffffffffffffffffffffffffffffffffffff1681526020019081526020016000205411156106bf576001600360008473ffffffffffffffffffffffffffffffffffffffff1673ffffffffffffffffffffffffffffffffffffffff168152602001908152602001600020548154811061055b57fe5b9060005260206000209060020201604051806040016040529081600082018054600181600116156101000203166002900480601f01602080910402602001604051908101604052809291908181526020018280546001816001161561010002031660029004801561060d5780601f106105e25761010080835404028352916020019161060d565b820191906000526020600020905b8154815290600101906020018083116105f057829003601f168201915b50505050508152602001600182018054600181600116156101000203166002900480601f0160208091040260200160405190810160405280929190818152602001828054600181600116156101000203166002900480156106af5780601f10610684576101008083540402835291602001916106af565b820191906000526020600020905b81548152906001019060200180831161069257829003601f168201915b50505050508152505090506106f5565b60405180604001604052806040518060200160405280600081525081526020016040518060200160405280600081525081525090505b919050565b600080600360003373ffffffffffffffffffffffffffffffffffffffff1673ffffffffffffffffffffffffffffffffffffffff1681526020019081526020016000205414801561074f575061074d611203565b155b61078e576040517f08c379a0000000000000000000000000000000000000000000000000000000008152600401610785906121fb565b60405180910390fd5b61079883836118cc565b905092915050565b600181815481106107ad57fe5b9060005260206000209060020201600091509050806000018054600181600116156101000203166002900480601f0160208091040260200160405190810160405280929190818152602001828054600181600116156101000203166002900480156108595780601f1061082e57610100808354040283529160200191610859565b820191906000526020600020905b81548152906001019060200180831161083c57829003601f168201915b505050505090806001018054600181600116156101000203166002900480601f0160208091040260200160405190810160405280929190818152602001828054600181600116156101000203166002900480156108f75780601f106108cc576101008083540402835291602001916108f7565b820191906000526020600020905b8154815290600101906020018083116108da57829003601f168201915b5050505050905082565b60036020528060005260406000206000915090505481565b60026020528060005260406000206000915054906101000a900473ffffffffffffffffffffffffffffffffffffffff1681565b3373ffffffffffffffffffffffffffffffffffffffff168273ffffffffffffffffffffffffffffffffffffffff1614156109bb576040517f08c379a00000000000000000000000000000000000000000000000000000000081526004016109b29061225b565b60405180910390fd5b600660405180608001604052804281526020018381526020013373ffffffffffffffffffffffffffffffffffffffff1681526020018473ffffffffffffffffffffffffffffffffffffffff1681525090806001815401808255809150509060018203906000526020600020906004020160009091929091909150600082015181600001556020820151816001019080519060200190610a5b929190611a69565b5060408201518160020160006101000a81548173ffffffffffffffffffffffffffffffffffffffff021916908373ffffffffffffffffffffffffffffffffffffffff16021790555060608201518160030160006101000a81548173ffffffffffffffffffffffffffffffffffffffff021916908373ffffffffffffffffffffffffffffffffffffffff160217905550505050600060016006805490500390508273ffffffffffffffffffffffffffffffffffffffff163373ffffffffffffffffffffffffffffffffffffffff167f77fce3d644d187c48dee687c98653e76ea55d8aecf5ed4ac8f202d4d045c38c683604051610b5791906122bd565b60405180910390a37fffffffffffffffffffffffffffffffffffffffffffffffffffffffffffffffff600860003373ffffffffffffffffffffffffffffffffffffffff1673ffffffffffffffffffffffffffffffffffffffff16815260200190815260200160002073__Search________________________________634bb978bc9091866040518363ffffffff1660e01b8152600401610bf9929190612135565b60206040518083038186803b158015610c1157600080fd5b505af4158015610c25573d6000803e3d6000fd5b505050506040513d601f19601f82011682018060405250610c499190810190611d07565b1415610cf357600860003373ffffffffffffffffffffffffffffffffffffffff1673ffffffffffffffffffffffffffffffffffffffff1681526020019081526020016000208390806001815401808255809150509060018203906000526020600020016000909192909190916101000a81548173ffffffffffffffffffffffffffffffffffffffff021916908373ffffffffffffffffffffffffffffffffffffffff160217905550505b7fffffffffffffffffffffffffffffffffffffffffffffffffffffffffffffffff600860008573ffffffffffffffffffffffffffffffffffffffff1673ffffffffffffffffffffffffffffffffffffffff16815260200190815260200160002073__Search________________________________634bb978bc9091336040518363ffffffff1660e01b8152600401610d8d92919061215e565b60206040518083038186803b158015610da557600080fd5b505af4158015610db9573d6000803e3d6000fd5b505050506040513d601f19601f82011682018060405250610ddd9190810190611d07565b1415610e8757600860008473ffffffffffffffffffffffffffffffffffffffff1673ffffffffffffffffffffffffffffffffffffffff1681526020019081526020016000203390806001815401808255809150509060018203906000526020600020016000909192909190916101000a81548173ffffffffffffffffffffffffffffffffffffffff021916908373ffffffffffffffffffffffffffffffffffffffff160217905550505b600760003373ffffffffffffffffffffffffffffffffffffffff1673ffffffffffffffffffffffffffffffffffffffff16815260200190815260200160002060008473ffffffffffffffffffffffffffffffffffffffff1673ffffffffffffffffffffffffffffffffffffffff16815260200190815260200160002060008154809291906001019190505550600760008473ffffffffffffffffffffffffffffffffffffffff1673ffffffffffffffffffffffffffffffffffffffff16815260200190815260200160002060003373ffffffffffffffffffffffffffffffffffffffff1673ffffffffffffffffffffffffffffffffffffffff168152602001908152602001600020600081548092919060010191905055506000905060609150505050565b6000600360003373ffffffffffffffffffffffffffffffffffffffff1673ffffffffffffffffffffffffffffffffffffffff168152602001908152602001600020541161102e576040517f08c379a00000000000000000000000000000000000000000000000000000000081526004016110259061223b565b60405180910390fd5b6000600360003373ffffffffffffffffffffffffffffffffffffffff1673ffffffffffffffffffffffffffffffffffffffff1681526020019081526020016000205490506040518060400160405280848152602001838152506001828154811061109457fe5b906000526020600020906002020160008201518160000190805190602001906110be929190611a69565b5060208201518160010190805190602001906110db929190611a69565b50905050505050565b60006110ee611203565b1561112e576040517f08c379a00000000000000000000000000000000000000000000000000000000081526004016111259061227b565b60405180910390fd5b6000600360003373ffffffffffffffffffffffffffffffffffffffff1673ffffffffffffffffffffffffffffffffffffffff1681526020019081526020016000205414156111875761118083836118cc565b90506111d4565b6111918383610fac565b600360003373ffffffffffffffffffffffffffffffffffffffff1673ffffffffffffffffffffffffffffffffffffffff1681526020019081526020016000205490505b92915050565b60008060009054906101000a900473ffffffffffffffffffffffffffffffffffffffff16905090565b60008060009054906101000a900473ffffffffffffffffffffffffffffffffffffffff1673ffffffffffffffffffffffffffffffffffffffff163373ffffffffffffffffffffffffffffffffffffffff1614905090565b6000809054906101000a900473ffffffffffffffffffffffffffffffffffffffff1673ffffffffffffffffffffffffffffffffffffffff163373ffffffffffffffffffffffffffffffffffffffff16146112e9576040517f08c379a00000000000000000000000000000000000000000000000000000000081526004016112e09061221b565b60405180910390fd5b8073ffffffffffffffffffffffffffffffffffffffff166000809054906101000a900473ffffffffffffffffffffffffffffffffffffffff1673ffffffffffffffffffffffffffffffffffffffff167f342827c97908e5e2f71151c08502a66d44b6f758e3ac2f1de95f02eb95f0a73560405160405180910390a3806000806101000a81548173ffffffffffffffffffffffffffffffffffffffff021916908373ffffffffffffffffffffffffffffffffffffffff16021790555050565b606080600760003373ffffffffffffffffffffffffffffffffffffffff1673ffffffffffffffffffffffffffffffffffffffff16815260200190815260200160002060008473ffffffffffffffffffffffffffffffffffffffff1673ffffffffffffffffffffffffffffffffffffffff1681526020019081526020016000205460405190808252806020026020018201604052801561146057816020015b61144d611ae9565b8152602001906001900390816114455790505b509050600080905060008090505b6006805490508110156117f6573373ffffffffffffffffffffffffffffffffffffffff166006828154811061149f57fe5b906000526020600020906004020160020160009054906101000a900473ffffffffffffffffffffffffffffffffffffffff1673ffffffffffffffffffffffffffffffffffffffff1614801561155d57508473ffffffffffffffffffffffffffffffffffffffff166006828154811061151357fe5b906000526020600020906004020160030160009054906101000a900473ffffffffffffffffffffffffffffffffffffffff1673ffffffffffffffffffffffffffffffffffffffff16145b8061164657508473ffffffffffffffffffffffffffffffffffffffff166006828154811061158757fe5b906000526020600020906004020160020160009054906101000a900473ffffffffffffffffffffffffffffffffffffffff1673ffffffffffffffffffffffffffffffffffffffff1614801561164557503373ffffffffffffffffffffffffffffffffffffffff16600682815481106115fb57fe5b906000526020600020906004020160030160009054906101000a900473ffffffffffffffffffffffffffffffffffffffff1673ffffffffffffffffffffffffffffffffffffffff16145b5b156117e9576006818154811061165857fe5b906000526020600020906004020160405180608001604052908160008201548152602001600182018054600181600116156101000203166002900480601f0160208091040260200160405190810160405280929190818152602001828054600181600116156101000203166002900480156117145780601f106116e957610100808354040283529160200191611714565b820191906000526020600020905b8154815290600101906020018083116116f757829003601f168201915b505050505081526020016002820160009054906101000a900473ffffffffffffffffffffffffffffffffffffffff1673ffffffffffffffffffffffffffffffffffffffff1673ffffffffffffffffffffffffffffffffffffffff1681526020016003820160009054906101000a900473ffffffffffffffffffffffffffffffffffffffff1673ffffffffffffffffffffffffffffffffffffffff1673ffffffffffffffffffffffffffffffffffffffff16815250508383815181106117d557fe5b602002602001018190525081806001019250505b808060010191505061146e565b508192505050919050565b6060600860003373ffffffffffffffffffffffffffffffffffffffff1673ffffffffffffffffffffffffffffffffffffffff1681526020019081526020016000208054806020026020016040519081016040528092919081815260200182805480156118c257602002820191906000526020600020905b8160009054906101000a900473ffffffffffffffffffffffffffffffffffffffff1673ffffffffffffffffffffffffffffffffffffffff1681526020019060010190808311611878575b5050505050905090565b6000600160405180604001604052808581526020018481525090806001815401808255809150509060018203906000526020600020906002020160009091929091909150600082015181600001908051906020019061192c929190611a69565b506020820151816001019080519060200190611949929190611a69565b50505050600060018080549050039050336002600083815260200190815260200160002060006101000a81548173ffffffffffffffffffffffffffffffffffffffff021916908373ffffffffffffffffffffffffffffffffffffffff16021790555080600360003373ffffffffffffffffffffffffffffffffffffffff1673ffffffffffffffffffffffffffffffffffffffff16815260200190815260200160002081905550600560008154809291906001019190505550803373ffffffffffffffffffffffffffffffffffffffff167f9b6cf03be9f7e948f3e1d617c27f9f46c5b8187ff8ca7bdbede097f7d3b6b34760405160405180910390a38091505092915050565b604051806040016040528060608152602001606081525090565b828054600181600116156101000203166002900490600052602060002090601f016020900481019282601f10611aaa57805160ff1916838001178555611ad8565b82800160010185558215611ad8579182015b82811115611ad7578251825591602001919060010190611abc565b5b509050611ae59190611b3d565b5090565b60405180608001604052806000815260200160608152602001600073ffffffffffffffffffffffffffffffffffffffff168152602001600073ffffffffffffffffffffffffffffffffffffffff1681525090565b611b5f91905b80821115611b5b576000816000905550600101611b43565b5090565b90565b600081359050611b71816124a1565b92915050565b600082601f830112611b8857600080fd5b8135611b9b611b9682612305565b6122d8565b91508082526020830160208301858383011115611bb757600080fd5b611bc283828461244e565b50505092915050565b600081359050611bda816124b8565b92915050565b600081519050611bef816124b8565b92915050565b600060208284031215611c0757600080fd5b6000611c1584828501611b62565b91505092915050565b60008060408385031215611c3157600080fd5b6000611c3f85828601611b62565b925050602083013567ffffffffffffffff811115611c5c57600080fd5b611c6885828601611b77565b9150509250929050565b60008060408385031215611c8557600080fd5b600083013567ffffffffffffffff811115611c9f57600080fd5b611cab85828601611b77565b925050602083013567ffffffffffffffff811115611cc857600080fd5b611cd485828601611b77565b9150509250929050565b600060208284031215611cf057600080fd5b6000611cfe84828501611bcb565b91505092915050565b600060208284031215611d1957600080fd5b6000611d2784828501611be0565b91505092915050565b6000611d3c8383611d6b565b60208301905092915050565b6000611d548383612033565b905092915050565b611d6581612418565b82525050565b611d74816123d0565b82525050565b611d83816123d0565b82525050565b611d92816123d0565b82525050565b6000611da382612351565b611dad818561238c565b9350611db883612331565b8060005b83811015611de9578151611dd08882611d30565b9750611ddb83612372565b925050600181019050611dbc565b5085935050505092915050565b8082525050565b6000611e088261235c565b611e12818561239d565b935083602082028501611e2485612341565b8060005b85811015611e605784840389528151611e418582611d48565b9450611e4c8361237f565b925060208a01995050600181019050611e28565b50829750879550505050505092915050565b611e7b816123e2565b82525050565b6000611e8c82612367565b611e9681856123ae565b9350611ea681856020860161245d565b611eaf81612490565b840191505092915050565b6000611ec582612367565b611ecf81856123bf565b9350611edf81856020860161245d565b611ee881612490565b840191505092915050565b6000611f006012836123bf565b91507f616c7265616479207265676973746572656400000000000000000000000000006000830152602082019050919050565b6000611f406013836123bf565b91507f43616c6c6572206973206e6f74206f776e6572000000000000000000000000006000830152602082019050919050565b6000611f80600e836123bf565b91507f6e6f7420726567697374657265640000000000000000000000000000000000006000830152602082019050919050565b6000611fc06018836123bf565b91507f43616e206e6f742073656e6420746f20796f757273656c6600000000000000006000830152602082019050919050565b6000612000600d836123bf565b91507f796f7520617265206f776e6572000000000000000000000000000000000000006000830152602082019050919050565b600060808301600083015161204b60008601826120da565b50602083015184820360208601526120638282611e81565b91505060408301516120786040860182611d6b565b50606083015161208b6060860182611d6b565b508091505092915050565b600060408301600083015184820360008601526120b38282611e81565b915050602083015184820360208601526120cd8282611e81565b9150508091505092915050565b6120e38161240e565b82525050565b6120f28161240e565b82525050565b600060208201905061210d6000830184611d7a565b92915050565b6000602082019050818103600083015261212d8184611d98565b905092915050565b600060408201905061214a6000830185611df6565b6121576020830184611d89565b9392505050565b60006040820190506121736000830185611df6565b6121806020830184611d5c565b9392505050565b600060208201905081810360008301526121a18184611dfd565b905092915050565b60006020820190506121be6000830184611e72565b92915050565b600060408201905081810360008301526121de8185611eba565b905081810360208301526121f28184611eba565b90509392505050565b6000602082019050818103600083015261221481611ef3565b9050919050565b6000602082019050818103600083015261223481611f33565b9050919050565b6000602082019050818103600083015261225481611f73565b9050919050565b6000602082019050818103600083015261227481611fb3565b9050919050565b6000602082019050818103600083015261229481611ff3565b9050919050565b600060208201905081810360008301526122b58184612096565b905092915050565b60006020820190506122d260008301846120e9565b92915050565b6000604051905081810181811067ffffffffffffffff821117156122fb57600080fd5b8060405250919050565b600067ffffffffffffffff82111561231c57600080fd5b601f19601f8301169050602081019050919050565b6000819050602082019050919050565b6000819050602082019050919050565b600081519050919050565b600081519050919050565b600081519050919050565b6000602082019050919050565b6000602082019050919050565b600082825260208201905092915050565b600082825260208201905092915050565b600082825260208201905092915050565b600082825260208201905092915050565b60006123db826123ee565b9050919050565b60008115159050919050565b600073ffffffffffffffffffffffffffffffffffffffff82169050919050565b6000819050919050565b60006124238261242a565b9050919050565b60006124358261243c565b9050919050565b6000612447826123ee565b9050919050565b82818337600083830152505050565b60005b8381101561247b578082015181840152602081019050612460565b8381111561248a576000848401525b50505050565b6000601f19601f8301169050919050565b6124aa816123d0565b81146124b557600080fd5b50565b6124c18161240e565b81146124cc57600080fd5b5056fea365627a7a72315820d869ba027c7b2a9b64106c379e12c64bf61fbc5ce610d4818dc71504abd05ce06c6578706572696d656e74616cf564736f6c63430005110040",
  "compiler": {
    "name": "solc",
    "version": "0.5.17+commit.d19bba13.Emscripten.clang",
    "optimizer": {
      "enabled": false,
      "runs": 200
    },
    "evmVersion": "petersburg"
  }
}