{
  "fileName": "MineBlockCraft.sol",
  "contractName": "MBCUser",
  "source": "pragma solidity >=0.5.0 <0.7.0;\npragma experimental ABIEncoderV2;\n\nimport \"@openzeppelin/upgrades/contracts/Initializable.sol\";\n\n\ncontract Owner {\n    address internal _owner;\n\n    event OwnerSet(address indexed oldOwner, address indexed newOwner);\n\n    modifier onlyOwner() {\n        require(msg.sender == _owner, \"Caller is not owner\");\n        _;\n    }\n\n    function changeOwner(address newOwner) public onlyOwner {\n        emit OwnerSet(_owner, newOwner);\n        _owner = newOwner;\n    }\n\n    function owner() public view returns (address) {\n        return _owner;\n    }\n    function isOwner() public view returns (bool) {\n        return msg.sender == _owner;\n    }\n\n}\n\n\ncontract MBCUser is Owner {\n    struct Profile {\n        string Nickname;\n        string Signature;\n    }\n\n    Profile[] public Profiles;\n\n    mapping(uint256 => address) public IdToAddress;\n    mapping(address => uint256) public AddressToId;\n    mapping(address => address[]) internal Friend;\n\n    uint256 public userCount;\n\n    event eventNewUser(address indexed userAddress, uint256 indexed UserId);\n\n    modifier isUser() {\n        require(\n            AddressToId[msg.sender] > 0 || isOwner(),\n            \"not registered\"\n        );\n        _;\n    }\n\n    function _newUser(string memory _Nickname, string memory _Signature)\n        internal\n        returns (uint256 _userId)\n    {\n        Profiles.push(Profile(_Nickname, _Signature));\n        uint256 UserId = Profiles.length - 1;\n\n        IdToAddress[UserId] = msg.sender;\n        AddressToId[msg.sender] = UserId;\n        userCount++;\n\n        emit eventNewUser(msg.sender, UserId);\n\n        return UserId;\n    }\n\n    function newUser(string memory _Nickname, string memory _Signature)\n        public\n        returns (uint256 _userId)\n    {\n        require(\n            AddressToId[msg.sender] == 0 && !isOwner(),\n            \"already registered\"\n        );\n        return _newUser(_Nickname, _Signature);\n    }\n\n    function editProfile(string memory _Nickname, string memory _Signature)\n        public\n    {\n        require(AddressToId[msg.sender] > 0, \"not registered\");\n        uint256 UserId = AddressToId[msg.sender];\n        Profiles[UserId] = Profile(_Nickname, _Signature);\n    }\n\n    function newProfile(string memory _Nickname, string memory _Signature)\n        public\n        returns (uint256 _userId)\n    {\n        require(!isOwner(), \"you are owner\");\n        if (AddressToId[msg.sender] == 0) {\n            return _newUser(_Nickname, _Signature);\n        } else {\n            editProfile(_Nickname, _Signature);\n            return AddressToId[msg.sender];\n        }\n    }\n\n    function getProfile(address _address) public view returns (Profile memory) {\n        if (_address == owner()) {\n            return Profiles[0];\n        } else if (AddressToId[_address] > 0) {\n            return Profiles[AddressToId[_address]];\n        } else {\n            return Profile(\"\", \"\");\n        }\n    }\n}\n\n\nlibrary Search {\n    function indexOf(address[] storage self, address value)\n        public\n        view\n        returns (uint256)\n    {\n        for (uint256 i = 0; i < self.length; i++) {\n            if (self[i] == value) return i;\n        }\n        return uint256(-1);\n    }\n}\n\n\ncontract MBCMessage is MBCUser {\n    struct Message {\n        uint256 time;\n        string content;\n        address fromUser;\n        address toUser;\n    }\n\n    Message[] internal Messages;\n    using Search for address[];\n\n    mapping(address => mapping(address => uint256)) internal messageCount;\n    mapping(address => address[]) internal messageList;\n\n    event newMessage(\n        address indexed fromUser,\n        address indexed toUser,\n        uint256 MessageId\n    );\n\n    function sendMsg(address _toUser, string memory _content) public {\n        require(_toUser != msg.sender, \"Can not send to yourself\");\n        //推入消息列表\n        Messages.push(Message(block.timestamp, _content, msg.sender, _toUser));\n        uint256 MessageId = Messages.length - 1;\n        emit newMessage(msg.sender, _toUser, MessageId);\n        if (messageList[msg.sender].indexOf(_toUser) == uint256(-1)) {\n            messageList[msg.sender].push(_toUser);\n        }\n        if (messageList[_toUser].indexOf(msg.sender) == uint256(-1)) {\n            messageList[_toUser].push(msg.sender);\n        }\n\n        messageCount[msg.sender][_toUser]++;\n        messageCount[_toUser][msg.sender]++;\n        delete MessageId;\n        delete _content;\n    }\n\n    function getMessages(address _toUser)\n        public\n        view\n        returns (Message[] memory)\n    {\n        Message[] memory result = new Message[](\n            messageCount[msg.sender][_toUser]\n        );\n\n        uint256 counter = 0;\n        for (uint256 i = 0; i < Messages.length; i++) {\n            if (\n                (Messages[i].fromUser == msg.sender &&\n                    Messages[i].toUser == _toUser) ||\n                (Messages[i].fromUser == _toUser &&\n                    Messages[i].toUser == msg.sender)\n            ) {\n                result[counter] = Messages[i];\n                counter++;\n            }\n        }\n        return result;\n    }\n\n    function msgList() public view returns (address[] memory) {\n        return messageList[msg.sender];\n    }\n}\n\n\ncontract MBCFriend is MBCUser, MBCMessage {\n    event eventAddFriend(address indexed fromUser, address indexed toUser);\n\n    function addFriend(address _toUser) public {\n        require(!isFriends(_toUser), \"already is your friend\");\n        Friend[msg.sender].push(_toUser);\n        messageList[msg.sender].push(_toUser);\n        emit eventAddFriend(msg.sender, _toUser);\n    }\n\n    function getFriends() public view returns (address[] memory) {\n        return Friend[msg.sender];\n    }\n\n    function isFriends(address _toUser) public view returns (bool) {\n        bool exists = false;\n        for (uint256 i = 0; i < Friend[msg.sender].length; i++) {\n            if (Friend[msg.sender][i] == _toUser) {\n                exists = true;\n            }\n        }\n        return exists;\n    }\n}\n\ncontract MBCCore is MBCFriend,Initializable {\n    function initialize() public initializer {\n        _owner = msg.sender;\n        emit OwnerSet(address(0), _owner);\n        _newUser(\"Fankouzu\", \"I'm admin\");\n    }\n}\n",
  "sourcePath": "contracts/MineBlockCraft.sol",
  "abi": [
    {
      "anonymous": false,
      "inputs": [
        {
          "indexed": true,
          "internalType": "address",
          "name": "oldOwner",
          "type": "address"
        },
        {
          "indexed": true,
          "internalType": "address",
          "name": "newOwner",
          "type": "address"
        }
      ],
      "name": "OwnerSet",
      "type": "event"
    },
    {
      "anonymous": false,
      "inputs": [
        {
          "indexed": true,
          "internalType": "address",
          "name": "userAddress",
          "type": "address"
        },
        {
          "indexed": true,
          "internalType": "uint256",
          "name": "UserId",
          "type": "uint256"
        }
      ],
      "name": "eventNewUser",
      "type": "event"
    },
    {
      "constant": true,
      "inputs": [
        {
          "internalType": "address",
          "name": "",
          "type": "address"
        }
      ],
      "name": "AddressToId",
      "outputs": [
        {
          "internalType": "uint256",
          "name": "",
          "type": "uint256"
        }
      ],
      "payable": false,
      "stateMutability": "view",
      "type": "function"
    },
    {
      "constant": true,
      "inputs": [
        {
          "internalType": "uint256",
          "name": "",
          "type": "uint256"
        }
      ],
      "name": "IdToAddress",
      "outputs": [
        {
          "internalType": "address",
          "name": "",
          "type": "address"
        }
      ],
      "payable": false,
      "stateMutability": "view",
      "type": "function"
    },
    {
      "constant": true,
      "inputs": [
        {
          "internalType": "uint256",
          "name": "",
          "type": "uint256"
        }
      ],
      "name": "Profiles",
      "outputs": [
        {
          "internalType": "string",
          "name": "Nickname",
          "type": "string"
        },
        {
          "internalType": "string",
          "name": "Signature",
          "type": "string"
        }
      ],
      "payable": false,
      "stateMutability": "view",
      "type": "function"
    },
    {
      "constant": false,
      "inputs": [
        {
          "internalType": "address",
          "name": "newOwner",
          "type": "address"
        }
      ],
      "name": "changeOwner",
      "outputs": [],
      "payable": false,
      "stateMutability": "nonpayable",
      "type": "function"
    },
    {
      "constant": false,
      "inputs": [
        {
          "internalType": "string",
          "name": "_Nickname",
          "type": "string"
        },
        {
          "internalType": "string",
          "name": "_Signature",
          "type": "string"
        }
      ],
      "name": "editProfile",
      "outputs": [],
      "payable": false,
      "stateMutability": "nonpayable",
      "type": "function"
    },
    {
      "constant": true,
      "inputs": [
        {
          "internalType": "address",
          "name": "_address",
          "type": "address"
        }
      ],
      "name": "getProfile",
      "outputs": [
        {
          "components": [
            {
              "internalType": "string",
              "name": "Nickname",
              "type": "string"
            },
            {
              "internalType": "string",
              "name": "Signature",
              "type": "string"
            }
          ],
          "internalType": "struct MBCUser.Profile",
          "name": "",
          "type": "tuple"
        }
      ],
      "payable": false,
      "stateMutability": "view",
      "type": "function"
    },
    {
      "constant": true,
      "inputs": [],
      "name": "isOwner",
      "outputs": [
        {
          "internalType": "bool",
          "name": "",
          "type": "bool"
        }
      ],
      "payable": false,
      "stateMutability": "view",
      "type": "function"
    },
    {
      "constant": false,
      "inputs": [
        {
          "internalType": "string",
          "name": "_Nickname",
          "type": "string"
        },
        {
          "internalType": "string",
          "name": "_Signature",
          "type": "string"
        }
      ],
      "name": "newProfile",
      "outputs": [
        {
          "internalType": "uint256",
          "name": "_userId",
          "type": "uint256"
        }
      ],
      "payable": false,
      "stateMutability": "nonpayable",
      "type": "function"
    },
    {
      "constant": false,
      "inputs": [
        {
          "internalType": "string",
          "name": "_Nickname",
          "type": "string"
        },
        {
          "internalType": "string",
          "name": "_Signature",
          "type": "string"
        }
      ],
      "name": "newUser",
      "outputs": [
        {
          "internalType": "uint256",
          "name": "_userId",
          "type": "uint256"
        }
      ],
      "payable": false,
      "stateMutability": "nonpayable",
      "type": "function"
    },
    {
      "constant": true,
      "inputs": [],
      "name": "owner",
      "outputs": [
        {
          "internalType": "address",
          "name": "",
          "type": "address"
        }
      ],
      "payable": false,
      "stateMutability": "view",
      "type": "function"
    },
    {
      "constant": true,
      "inputs": [],
      "name": "userCount",
      "outputs": [
        {
          "internalType": "uint256",
          "name": "",
          "type": "uint256"
        }
      ],
      "payable": false,
      "stateMutability": "view",
      "type": "function"
    }
  ],
  "bytecode": "0x608060405234801561001057600080fd5b506114b9806100206000396000f3fe608060405234801561001057600080fd5b50600436106100a95760003560e01c80636776a163116100715780636776a1631461018d57806383555335146101bd5780638b5927e9146101d95780638da5cb5b146102095780638f32d59b14610227578063a6f9dae114610245576100a9565b806307973ccf146100ae5780630f53a470146100cc5780631f34563c146100fc5780634cea965e1461012c5780635c2bc8e51461015d575b600080fd5b6100b6610261565b6040516100c3919061130c565b60405180910390f35b6100e660048036036100e19190810190610f5c565b610267565b6040516100f391906112ea565b60405180910390f35b61011660048036036101119190810190610f85565b61064f565b604051610123919061130c565b60405180910390f35b61014660048036036101419190810190610ff1565b6106f5565b604051610154929190611233565b60405180910390f35b61017760048036036101729190810190610f5c565b610856565b604051610184919061130c565b60405180910390f35b6101a760048036036101a29190810190610ff1565b61086e565b6040516101b491906111fd565b60405180910390f35b6101d760048036036101d29190810190610f85565b6108a1565b005b6101f360048036036101ee9190810190610f85565b6109d9565b604051610200919061130c565b60405180910390f35b610211610acf565b60405161021e91906111fd565b60405180910390f35b61022f610af8565b60405161023c9190611218565b60405180910390f35b61025f600480360361025a9190810190610f5c565b610b4f565b005b60055481565b61026f610e1f565b610277610acf565b73ffffffffffffffffffffffffffffffffffffffff168273ffffffffffffffffffffffffffffffffffffffff16141561041c5760016000815481106102b857fe5b9060005260206000209060020201604051806040016040529081600082018054600181600116156101000203166002900480601f01602080910402602001604051908101604052809291908181526020018280546001816001161561010002031660029004801561036a5780601f1061033f5761010080835404028352916020019161036a565b820191906000526020600020905b81548152906001019060200180831161034d57829003601f168201915b50505050508152602001600182018054600181600116156101000203166002900480601f01602080910402602001604051908101604052809291908181526020018280546001816001161561010002031660029004801561040c5780601f106103e15761010080835404028352916020019161040c565b820191906000526020600020905b8154815290600101906020018083116103ef57829003601f168201915b505050505081525050905061064a565b6000600360008473ffffffffffffffffffffffffffffffffffffffff1673ffffffffffffffffffffffffffffffffffffffff168152602001908152602001600020541115610614576001600360008473ffffffffffffffffffffffffffffffffffffffff1673ffffffffffffffffffffffffffffffffffffffff16815260200190815260200160002054815481106104b057fe5b9060005260206000209060020201604051806040016040529081600082018054600181600116156101000203166002900480601f0160208091040260200160405190810160405280929190818152602001828054600181600116156101000203166002900480156105625780601f1061053757610100808354040283529160200191610562565b820191906000526020600020905b81548152906001019060200180831161054557829003601f168201915b50505050508152602001600182018054600181600116156101000203166002900480601f0160208091040260200160405190810160405280929190818152602001828054600181600116156101000203166002900480156106045780601f106105d957610100808354040283529160200191610604565b820191906000526020600020905b8154815290600101906020018083116105e757829003601f168201915b505050505081525050905061064a565b60405180604001604052806040518060200160405280600081525081526020016040518060200160405280600081525081525090505b919050565b600080600360003373ffffffffffffffffffffffffffffffffffffffff1673ffffffffffffffffffffffffffffffffffffffff168152602001908152602001600020541480156106a457506106a2610af8565b155b6106e3576040517f08c379a00000000000000000000000000000000000000000000000000000000081526004016106da9061126a565b60405180910390fd5b6106ed8383610c9c565b905092915050565b6001818154811061070257fe5b9060005260206000209060020201600091509050806000018054600181600116156101000203166002900480601f0160208091040260200160405190810160405280929190818152602001828054600181600116156101000203166002900480156107ae5780601f10610783576101008083540402835291602001916107ae565b820191906000526020600020905b81548152906001019060200180831161079157829003601f168201915b505050505090806001018054600181600116156101000203166002900480601f01602080910402602001604051908101604052809291908181526020018280546001816001161561010002031660029004801561084c5780601f106108215761010080835404028352916020019161084c565b820191906000526020600020905b81548152906001019060200180831161082f57829003601f168201915b5050505050905082565b60036020528060005260406000206000915090505481565b60026020528060005260406000206000915054906101000a900473ffffffffffffffffffffffffffffffffffffffff1681565b6000600360003373ffffffffffffffffffffffffffffffffffffffff1673ffffffffffffffffffffffffffffffffffffffff1681526020019081526020016000205411610923576040517f08c379a000000000000000000000000000000000000000000000000000000000815260040161091a906112aa565b60405180910390fd5b6000600360003373ffffffffffffffffffffffffffffffffffffffff1673ffffffffffffffffffffffffffffffffffffffff1681526020019081526020016000205490506040518060400160405280848152602001838152506001828154811061098957fe5b906000526020600020906002020160008201518160000190805190602001906109b3929190610e39565b5060208201518160010190805190602001906109d0929190610e39565b50905050505050565b60006109e3610af8565b15610a23576040517f08c379a0000000000000000000000000000000000000000000000000000000008152600401610a1a906112ca565b60405180910390fd5b6000600360003373ffffffffffffffffffffffffffffffffffffffff1673ffffffffffffffffffffffffffffffffffffffff168152602001908152602001600020541415610a7c57610a758383610c9c565b9050610ac9565b610a8683836108a1565b600360003373ffffffffffffffffffffffffffffffffffffffff1673ffffffffffffffffffffffffffffffffffffffff1681526020019081526020016000205490505b92915050565b60008060009054906101000a900473ffffffffffffffffffffffffffffffffffffffff16905090565b60008060009054906101000a900473ffffffffffffffffffffffffffffffffffffffff1673ffffffffffffffffffffffffffffffffffffffff163373ffffffffffffffffffffffffffffffffffffffff1614905090565b6000809054906101000a900473ffffffffffffffffffffffffffffffffffffffff1673ffffffffffffffffffffffffffffffffffffffff163373ffffffffffffffffffffffffffffffffffffffff1614610bde576040517f08c379a0000000000000000000000000000000000000000000000000000000008152600401610bd59061128a565b60405180910390fd5b8073ffffffffffffffffffffffffffffffffffffffff166000809054906101000a900473ffffffffffffffffffffffffffffffffffffffff1673ffffffffffffffffffffffffffffffffffffffff167f342827c97908e5e2f71151c08502a66d44b6f758e3ac2f1de95f02eb95f0a73560405160405180910390a3806000806101000a81548173ffffffffffffffffffffffffffffffffffffffff021916908373ffffffffffffffffffffffffffffffffffffffff16021790555050565b60006001604051806040016040528085815260200184815250908060018154018082558091505090600182039060005260206000209060020201600090919290919091506000820151816000019080519060200190610cfc929190610e39565b506020820151816001019080519060200190610d19929190610e39565b50505050600060018080549050039050336002600083815260200190815260200160002060006101000a81548173ffffffffffffffffffffffffffffffffffffffff021916908373ffffffffffffffffffffffffffffffffffffffff16021790555080600360003373ffffffffffffffffffffffffffffffffffffffff1673ffffffffffffffffffffffffffffffffffffffff16815260200190815260200160002081905550600560008154809291906001019190505550803373ffffffffffffffffffffffffffffffffffffffff167f9b6cf03be9f7e948f3e1d617c27f9f46c5b8187ff8ca7bdbede097f7d3b6b34760405160405180910390a38091505092915050565b604051806040016040528060608152602001606081525090565b828054600181600116156101000203166002900490600052602060002090601f016020900481019282601f10610e7a57805160ff1916838001178555610ea8565b82800160010185558215610ea8579182015b82811115610ea7578251825591602001919060010190610e8c565b5b509050610eb59190610eb9565b5090565b610edb91905b80821115610ed7576000816000905550600101610ebf565b5090565b90565b600081359050610eed81611448565b92915050565b600082601f830112610f0457600080fd5b8135610f17610f1282611354565b611327565b91508082526020830160208301858383011115610f3357600080fd5b610f3e8382846113f5565b50505092915050565b600081359050610f568161145f565b92915050565b600060208284031215610f6e57600080fd5b6000610f7c84828501610ede565b91505092915050565b60008060408385031215610f9857600080fd5b600083013567ffffffffffffffff811115610fb257600080fd5b610fbe85828601610ef3565b925050602083013567ffffffffffffffff811115610fdb57600080fd5b610fe785828601610ef3565b9150509250929050565b60006020828403121561100357600080fd5b600061101184828501610f47565b91505092915050565b611023816113ad565b82525050565b611032816113bf565b82525050565b600061104382611380565b61104d818561138b565b935061105d818560208601611404565b61106681611437565b840191505092915050565b600061107c82611380565b611086818561139c565b9350611096818560208601611404565b61109f81611437565b840191505092915050565b60006110b760128361139c565b91507f616c7265616479207265676973746572656400000000000000000000000000006000830152602082019050919050565b60006110f760138361139c565b91507f43616c6c6572206973206e6f74206f776e6572000000000000000000000000006000830152602082019050919050565b6000611137600e8361139c565b91507f6e6f7420726567697374657265640000000000000000000000000000000000006000830152602082019050919050565b6000611177600d8361139c565b91507f796f7520617265206f776e6572000000000000000000000000000000000000006000830152602082019050919050565b600060408301600083015184820360008601526111c78282611038565b915050602083015184820360208601526111e18282611038565b9150508091505092915050565b6111f7816113eb565b82525050565b6000602082019050611212600083018461101a565b92915050565b600060208201905061122d6000830184611029565b92915050565b6000604082019050818103600083015261124d8185611071565b905081810360208301526112618184611071565b90509392505050565b60006020820190508181036000830152611283816110aa565b9050919050565b600060208201905081810360008301526112a3816110ea565b9050919050565b600060208201905081810360008301526112c38161112a565b9050919050565b600060208201905081810360008301526112e38161116a565b9050919050565b6000602082019050818103600083015261130481846111aa565b905092915050565b600060208201905061132160008301846111ee565b92915050565b6000604051905081810181811067ffffffffffffffff8211171561134a57600080fd5b8060405250919050565b600067ffffffffffffffff82111561136b57600080fd5b601f19601f8301169050602081019050919050565b600081519050919050565b600082825260208201905092915050565b600082825260208201905092915050565b60006113b8826113cb565b9050919050565b60008115159050919050565b600073ffffffffffffffffffffffffffffffffffffffff82169050919050565b6000819050919050565b82818337600083830152505050565b60005b83811015611422578082015181840152602081019050611407565b83811115611431576000848401525b50505050565b6000601f19601f8301169050919050565b611451816113ad565b811461145c57600080fd5b50565b611468816113eb565b811461147357600080fd5b5056fea365627a7a723158207718139244821035057564c714cbbed95af67e183b8bdfee7586870eaf7758d56c6578706572696d656e74616cf564736f6c63430005110040",
  "compiler": {
    "name": "solc",
    "version": "0.5.17+commit.d19bba13.Emscripten.clang",
    "optimizer": {
      "enabled": false,
      "runs": 200
    },
    "evmVersion": "petersburg"
  }
}