{
  "fileName": "MineBlockCraft.sol",
  "contractName": "Owner",
  "source": "pragma solidity >=0.5.0 <0.7.0;\npragma experimental ABIEncoderV2;\n\nimport \"@openzeppelin/upgrades/contracts/Initializable.sol\";\n\n\ncontract Owner {\n    address internal _owner;\n\n    event OwnerSet(address indexed oldOwner, address indexed newOwner);\n\n    modifier onlyOwner() {\n        require(msg.sender == _owner, \"Caller is not owner\");\n        _;\n    }\n\n    function changeOwner(address newOwner) public onlyOwner {\n        emit OwnerSet(_owner, newOwner);\n        _owner = newOwner;\n    }\n\n    function owner() public view returns (address) {\n        return _owner;\n    }\n    function isOwner() public view returns (bool) {\n        return msg.sender == _owner;\n    }\n\n}\n\n\ncontract MBCUser is Owner {\n    struct Profile {\n        string Nickname;\n        string Signature;\n    }\n\n    Profile[] public Profiles;\n\n    mapping(uint256 => address) public IdToAddress;\n    mapping(address => uint256) public AddressToId;\n    mapping(address => address[]) internal Friend;\n\n    uint256 public userCount;\n\n    event eventNewUser(address indexed userAddress, uint256 indexed UserId);\n\n    modifier isUser() {\n        require(\n            AddressToId[msg.sender] > 0 || isOwner(),\n            \"not registered\"\n        );\n        _;\n    }\n\n    function _newUser(string memory _Nickname, string memory _Signature)\n        internal\n        returns (uint256 _userId)\n    {\n        Profiles.push(Profile(_Nickname, _Signature));\n        uint256 UserId = Profiles.length - 1;\n\n        IdToAddress[UserId] = msg.sender;\n        AddressToId[msg.sender] = UserId;\n        userCount++;\n\n        emit eventNewUser(msg.sender, UserId);\n\n        return UserId;\n    }\n\n    function newUser(string memory _Nickname, string memory _Signature)\n        public\n        returns (uint256 _userId)\n    {\n        require(\n            AddressToId[msg.sender] == 0 && !isOwner(),\n            \"already registered\"\n        );\n        return _newUser(_Nickname, _Signature);\n    }\n\n    function editProfile(string memory _Nickname, string memory _Signature)\n        public\n    {\n        require(AddressToId[msg.sender] > 0, \"not registered\");\n        uint256 UserId = AddressToId[msg.sender];\n        Profiles[UserId] = Profile(_Nickname, _Signature);\n    }\n\n    function newProfile(string memory _Nickname, string memory _Signature)\n        public\n        returns (uint256 _userId)\n    {\n        require(!isOwner(), \"you are owner\");\n        if (AddressToId[msg.sender] == 0) {\n            return _newUser(_Nickname, _Signature);\n        } else {\n            editProfile(_Nickname, _Signature);\n            return AddressToId[msg.sender];\n        }\n    }\n\n    function getProfile(address _address) public view returns (Profile memory) {\n        if (_address == owner()) {\n            return Profiles[0];\n        } else if (AddressToId[_address] > 0) {\n            return Profiles[AddressToId[_address]];\n        } else {\n            return Profile(\"\", \"\");\n        }\n    }\n}\n\n\nlibrary Search {\n    function indexOf(address[] storage self, address value)\n        public\n        view\n        returns (uint256)\n    {\n        for (uint256 i = 0; i < self.length; i++) {\n            if (self[i] == value) return i;\n        }\n        return uint256(-1);\n    }\n}\n\n\ncontract MBCMessage is MBCUser {\n    struct Message {\n        uint256 time;\n        string content;\n        address fromUser;\n        address toUser;\n    }\n\n    Message[] internal Messages;\n    using Search for address[];\n\n    mapping(address => mapping(address => uint256)) internal messageCount;\n    mapping(address => address[]) internal messageList;\n\n    event newMessage(\n        address indexed fromUser,\n        address indexed toUser,\n        uint256 MessageId\n    );\n\n    function sendMsg(address _toUser, string memory _content) public {\n        require(_toUser != msg.sender, \"Can not send to yourself\");\n        //推入消息列表\n        Messages.push(Message(block.timestamp, _content, msg.sender, _toUser));\n        uint256 MessageId = Messages.length - 1;\n        emit newMessage(msg.sender, _toUser, MessageId);\n        if (messageList[msg.sender].indexOf(_toUser) == uint256(-1)) {\n            messageList[msg.sender].push(_toUser);\n        }\n        if (messageList[_toUser].indexOf(msg.sender) == uint256(-1)) {\n            messageList[_toUser].push(msg.sender);\n        }\n\n        messageCount[msg.sender][_toUser]++;\n        messageCount[_toUser][msg.sender]++;\n        delete MessageId;\n        delete _content;\n    }\n\n    function getMessages(address _toUser)\n        public\n        view\n        returns (Message[] memory)\n    {\n        Message[] memory result = new Message[](\n            messageCount[msg.sender][_toUser]\n        );\n\n        uint256 counter = 0;\n        for (uint256 i = 0; i < Messages.length; i++) {\n            if (\n                (Messages[i].fromUser == msg.sender &&\n                    Messages[i].toUser == _toUser) ||\n                (Messages[i].fromUser == _toUser &&\n                    Messages[i].toUser == msg.sender)\n            ) {\n                result[counter] = Messages[i];\n                counter++;\n            }\n        }\n        return result;\n    }\n\n    function msgList() public view returns (address[] memory) {\n        return messageList[msg.sender];\n    }\n}\n\n\ncontract MBCFriend is MBCUser, MBCMessage {\n    event eventAddFriend(address indexed fromUser, address indexed toUser);\n\n    function addFriend(address _toUser) public {\n        require(!isFriends(_toUser), \"already is your friend\");\n        Friend[msg.sender].push(_toUser);\n        messageList[msg.sender].push(_toUser);\n        emit eventAddFriend(msg.sender, _toUser);\n    }\n\n    function getFriends() public view returns (address[] memory) {\n        return Friend[msg.sender];\n    }\n\n    function isFriends(address _toUser) public view returns (bool) {\n        bool exists = false;\n        for (uint256 i = 0; i < Friend[msg.sender].length; i++) {\n            if (Friend[msg.sender][i] == _toUser) {\n                exists = true;\n            }\n        }\n        return exists;\n    }\n}\n\ncontract MBCCore is MBCFriend,Initializable {\n    function initialize() public initializer {\n        _owner = msg.sender;\n        emit OwnerSet(address(0), _owner);\n        _newUser(\"Fankouzu\", \"I'm admin\");\n    }\n}\n",
  "sourcePath": "contracts/MineBlockCraft.sol",
  "abi": [
    {
      "anonymous": false,
      "inputs": [
        {
          "indexed": true,
          "internalType": "address",
          "name": "oldOwner",
          "type": "address"
        },
        {
          "indexed": true,
          "internalType": "address",
          "name": "newOwner",
          "type": "address"
        }
      ],
      "name": "OwnerSet",
      "type": "event"
    },
    {
      "constant": false,
      "inputs": [
        {
          "internalType": "address",
          "name": "newOwner",
          "type": "address"
        }
      ],
      "name": "changeOwner",
      "outputs": [],
      "payable": false,
      "stateMutability": "nonpayable",
      "type": "function"
    },
    {
      "constant": true,
      "inputs": [],
      "name": "isOwner",
      "outputs": [
        {
          "internalType": "bool",
          "name": "",
          "type": "bool"
        }
      ],
      "payable": false,
      "stateMutability": "view",
      "type": "function"
    },
    {
      "constant": true,
      "inputs": [],
      "name": "owner",
      "outputs": [
        {
          "internalType": "address",
          "name": "",
          "type": "address"
        }
      ],
      "payable": false,
      "stateMutability": "view",
      "type": "function"
    }
  ],
  "bytecode": "0x608060405234801561001057600080fd5b50610406806100206000396000f3fe608060405234801561001057600080fd5b50600436106100415760003560e01c80638da5cb5b146100465780638f32d59b14610064578063a6f9dae114610082575b600080fd5b61004e61009e565b60405161005b9190610307565b60405180910390f35b61006c6100c7565b6040516100799190610322565b60405180910390f35b61009c60048036036100979190810190610280565b61011e565b005b60008060009054906101000a900473ffffffffffffffffffffffffffffffffffffffff16905090565b60008060009054906101000a900473ffffffffffffffffffffffffffffffffffffffff1673ffffffffffffffffffffffffffffffffffffffff163373ffffffffffffffffffffffffffffffffffffffff1614905090565b6000809054906101000a900473ffffffffffffffffffffffffffffffffffffffff1673ffffffffffffffffffffffffffffffffffffffff163373ffffffffffffffffffffffffffffffffffffffff16146101ad576040517f08c379a00000000000000000000000000000000000000000000000000000000081526004016101a49061033d565b60405180910390fd5b8073ffffffffffffffffffffffffffffffffffffffff166000809054906101000a900473ffffffffffffffffffffffffffffffffffffffff1673ffffffffffffffffffffffffffffffffffffffff167f342827c97908e5e2f71151c08502a66d44b6f758e3ac2f1de95f02eb95f0a73560405160405180910390a3806000806101000a81548173ffffffffffffffffffffffffffffffffffffffff021916908373ffffffffffffffffffffffffffffffffffffffff16021790555050565b60008135905061027a816103ac565b92915050565b60006020828403121561029257600080fd5b60006102a08482850161026b565b91505092915050565b6102b28161036e565b82525050565b6102c181610380565b82525050565b60006102d460138361035d565b91507f43616c6c6572206973206e6f74206f776e6572000000000000000000000000006000830152602082019050919050565b600060208201905061031c60008301846102a9565b92915050565b600060208201905061033760008301846102b8565b92915050565b60006020820190508181036000830152610356816102c7565b9050919050565b600082825260208201905092915050565b60006103798261038c565b9050919050565b60008115159050919050565b600073ffffffffffffffffffffffffffffffffffffffff82169050919050565b6103b58161036e565b81146103c057600080fd5b5056fea365627a7a723158203aca7baba3842648aedd1d3bba6977172b106c8c23a0c7f245b09b2585b6a59e6c6578706572696d656e74616cf564736f6c63430005110040",
  "compiler": {
    "name": "solc",
    "version": "0.5.17+commit.d19bba13.Emscripten.clang",
    "optimizer": {
      "enabled": false,
      "runs": 200
    },
    "evmVersion": "petersburg"
  }
}